:020000040800F2
:100000000028002031150008C1140008C71400089A
:10001000CD140008D3140008D91400080000000013
:10002000000000000000000000000000DF140008D5
:10003000EB14000800000000F71400080315000886
:100040007915000879150008791500087915000858
:100050007915000879150008791500087915000848
:100060007915000879150008791500087915000838
:100070007915000879150008791500087915000828
:100080007915000879150008791500087915000818
:100090007915000879150008791500087915000808
:1000A00079150008791500087915000879150008F8
:1000B00011150008791500080000000079150008E6
:1000C0007915000800000000000000007915000804
:1000D00000000000791500087915000800000000F4
:1000E000791500087915000879150008000000004E
:1000F0000000000000000000000000000000000000
:0C01000000000000000000005FF808F1A3
:10010C0010B5054C237833B9044B13B10448AFF345
:10011C0000800123237010BD1C0000200000000093
:10012C00A82B000808B5034B1BB103490348AFF3D8
:10013C00008008BD0000000020000020A82B000853
:10014C0080B582B000AF78607B68092B00F28081AB
:10015C0001A252F823F000BF8D010008D501000860
:10016C001D02000865020008AD020008F502000837
:10017C003D03000885030008CD03000815040008A2
:10018C0000220121B54801F0F4FC00220221B34801
:10019C0001F0EFFC00220421B04801F0EAFC00223F
:1001AC000821AE4801F0E5FC00221021AB4801F01B
:1001BC00E0FC00222021A94801F0DBFC01224021B7
:1001CC00A64801F0D6FC44E101220121A34801F02C
:1001DC00D0FC00220221A14801F0CBFC002204211A
:1001EC009E4801F0C6FC012208219C4801F0C1FC8C
:1001FC0001221021994801F0BCFC012220219748D2
:10020C0001F0B7FC01224021944801F0B2FC20E13E
:10021C0000220121914801F0ACFC002202218F4800
:10022C0001F0A7FC012204218C4801F0A2FC002261
:10023C0008218A4801F09DFC00221021874801F01A
:10024C0098FC01222021854801F093FC00224021DA
:10025C00824801F08EFCFCE0002201217F4801F075
:10026C0088FC002202217D4801F083FC002204213D
:10027C007A4801F07EFC00220821784801F079FCD4
:10028C0001221021754801F074FC012220217348D1
:10029C0001F06FFC00224021704801F06AFCD8E0AC
:1002AC00012201216D4801F064FC002202216B48FF
:1002BC0001F05FFC00220421684801F05AFC012285
:1002CC000821664801F055FC01221021634801F019
:1002DC0050FC00222021614801F04BFC00224021FF
:1002EC005E4801F046FCB4E0002201215B4801F0BD
:1002FC0040FC01220221594801F03BFC0022042160
:10030C00564801F036FC00220821544801F031FC1B
:10031C0001221021514801F02CFC002220214F48D1
:10032C0001F027FC002240214C4801F022FC90E017
:10033C0000220121494801F01CFC012202214748FE
:10034C0001F017FC00220421444801F012FC0022A9
:10035C000821424801F00DFC002210213F4801F019
:10036C0008FC002220213D4801F003FC0022402122
:10037C003A4801F0FEFB6CE000220121374801F005
:10038C00F8FB00220221354801F0F3FB0022042186
:10039C00324801F0EEFB01220821304801F0E9FB64
:1003AC00012210212D4801F0E4FB012220212B48D1
:1003BC0001F0DFFB01224021284801F0DAFB48E084
:1003CC0000220121254801F0D4FB00220221234800
:1003DC0001F0CFFB00220421204801F0CAFB0022CF
:1003EC0008211E4801F0C5FB002210211B4801F01A
:1003FC00C0FB00222021194801F0BBFB0022402148
:10040C00164801F0B6FB24E000220121134801F04C
:10041C00B0FB00220221114801F0ABFB00220421A9
:10042C000E4801F0A6FB002208210C4801F0A1FBAC
:10043C0001221021094801F09CFB002220210748D1
:10044C0001F097FB00224021044801F092FB00E0F0
:10045C0000BF00BF0837BD4680BD00BF000C014087
:10046C0080B483B000AF786039603B68012B17D142
:10047C007B68194A82FB03129210DB17D31A174AB6
:10048C0013607968144B83FB01239A10CB17D21A93
:10049C0013469B0013445B00CA1A104B5A6016E0BB
:1004AC007B680D4A82FB03129210DB17D31A0B4A9E
:1004BC0093607968084B83FB01239A10CB17D21AEF
:1004CC0013469B0013445B00CA1A044BDA6000BF4E
:1004DC000C37BD4680BC70476766666670000020AE
:1004EC0080B582B000AF78607B68032B00F284800B
:1004FC0001A252F823F000BF1505000851050008B1
:10050C008D050008C905000800224FF480613D48A4
:10051C0001F02FFB01224FF400613A4801F029FB56
:10052C0001224FF48051374801F023FB01224FF494
:10053C000051344801F01DFB334B1B681846FFF784
:10054C00FFFD5AE001224FF480612E4801F011FBAF
:10055C0000224FF400612B4801F00BFB01224FF4F9
:10056C008051284801F005FB01224FF40051254829
:10057C0001F0FFFA244B5B681846FFF7E1FD3CE005
:10058C0001224FF480611F4801F0F3FA01224FF46D
:10059C0000611C4801F0EDFA00224FF4805119481B
:1005AC0001F0E7FA01224FF40051164801F0E1FA8C
:1005BC00154B9B681846FFF7C3FD1EE001224FF454
:1005CC008061104801F0D5FA01224FF400610D480A
:1005DC0001F0CFFA01224FF480510A4801F0C9FA18
:1005EC0000224FF40051074801F0C3FA064BDB68B8
:1005FC001846FFF7A5FD00E000BF00BF0837BD4659
:10060C0080BD00BF000801407000002080B483B0A2
:10061C0000AF78603960074A3B68002142F823102C
:10062C0005493B687A6841F8232000BF0C37BD466A
:10063C0080BC7047800000201002002080B483B082
:10064C0000AF78600F4A7B6852F82330002B13DD23
:10065C000C4A7B6852F823305A1E0A497B6841F8D1
:10066C002320084A7B6852F82330002B04DC064A0E
:10067C007B68012142F8231000BF0C37BD4680BCBB
:10068C00704700BF100200208000002080B500AF32
:10069C00984B1B68042B00F2EE8201A252F823F057
:1006AC00C10600083D070008850700084509000839
:1006BC00FD0A0008002000F009FD0346002B02D0C3
:1006CC008D4B01221A60002000F000FD0346002B28
:1006DC0040F0D382884B1B68002B00F0CE82854BF8
:1006EC0001221A6000216420FFF790FF0121642091
:1006FC00FFF78CFF814B02221A60814B00221A609B
:10070C00804B1B68804A1360804B1B68804A1360C7
:10071C00804B1B68804A13607B4B1B687F4A1360BD
:10072C007D4B1B687E4A1360734B00221A60A4E257
:10073C0000F0C8FA00F07AFB002000F0C7FC03467A
:10074C00002B02D06C4B01221A60002000F0BEFC82
:10075C000346002B40F09382674B1B68002B00F084
:10076C008E82644B02221A6003213220FFF74EFF67
:10077C00614B00221A6082E26A4BDB68012B0BD1C1
:10078C0003213220FFF742FF1021674801F009FADC
:10079C008021654801F005FA5A4B1B680121184667
:1007AC00FFF75EFE02210220FFF75AFE012000F047
:1007BC008DFC0346002B02D05C4B01221A600120F9
:1007CC0000F084FC0346002B10D1584B1B68002B07
:1007DC000CD04C4B1B6801334A4A13604D4B1B68C1
:1007EC0001334C4A1360514B00221A60012000F077
:1007FC0087FC0346002B1CD04D4B1B68002B06D0EE
:10080C0004213220FFF702FF494B00221A60454BAE
:10081C001B69012B0DD104213220FFF7F7FE394B58
:10082C001B680133374A13603A4B1B680133394A52
:10083C001360022000F04AFC0346002B02D03D4B13
:10084C0001221A60022000F041FC0346002B27D144
:10085C00384B1B68002B23D0264B01221A60002139
:10086C006420FFF7D3FE01216420FFF7CFFE264B57
:10087C001B68244A1360264B1B68244A1360264BC2
:10088C001B68244A136001221021274801F071F9DA
:10089C0001228021244801F06CF9264B00221A60B9
:1008AC00002000F013FC0346002B02D0124B012257
:1008BC001A60002000F00AFC0346002B40F0E18196
:1008CC000D4B1B68002B00F0DC810A4B03221A60D5
:1008DC0003213220FFF79AFE01221021124801F069
:1008EC0048F901228021104801F043F9024B002203
:1008FC001A60C6E15400002048000020AC03002020
:10090C00C803002000000020A003002008000020E5
:10091C00A803002004000020A4030020C40300202E
:10092C00B403002080000020000801404C0000208F
:10093C000C00002050000020604BDB68012B0CD118
:10094C0003213220FFF762FE20215D4801F029F9D6
:10095C004FF480715A4801F024F95A4B1B6801215D
:10096C001846FFF77DFD02210320FFF779FD0120DA
:10097C0000F0ACFB0346002B02D0534B01221A6053
:10098C00012000F0A3FB0346002B10D14E4B1B683B
:10099C00002B0CD04B4B1B6801334A4A13604B4B5A
:1009AC001B680133494A1360474B00221A6001202F
:1009BC0000F0A6FB0346002B1CD0454B1B68002BFC
:1009CC0006D004213220FFF721FE414B00221A6091
:1009DC003A4B1B69012B0DD104213220FFF716FE77
:1009EC00384B1B680133374A1360384B1B68013393
:1009FC00364A1360022000F069FB0346002B02D03C
:100A0C00344B01221A60022000F060FB0346002BDD
:100A1C0028D1304B1B68002B24D02F4B01221A609D
:100A2C0000216420FFF7F2FD01216420FFF7EEFDA9
:100A3C002A4B1B682A4A13602A4B1B68214A1360F5
:100A4C00294B1B68214A1360012220211C4801F00C
:100A5C0090F801224FF48071194801F08AF81D4B6F
:100A6C0000221A60002000F031FB0346002B02D05C
:100A7C001E4B01221A60002000F028FB0346002BBD
:100A8C0040F00181194B1B68002B00F0FC80124BCD
:100A9C0004221A6003213220FFF7B8FD0122202125
:100AAC00074801F066F801224FF48071044801F008
:100ABC0060F80E4B00221A60E5E000BF80000020B9
:100ACC0000080140080000204C0000200400002019
:100ADC000C0000205000002054000020A003002037
:100AEC0000000020A8030020A403002048000020E0
:100AFC00674BDB68012B0CD103213220FFF786FDFD
:100B0C004021644801F04DF84FF40071614801F048
:100B1C0048F8614B1B6801211846FFF7A1FC022124
:100B2C000420FFF79DFC012000F0D0FA0346002BB7
:100B3C0002D05A4B01221A60012000F0C7FA03467A
:100B4C00002B10D1554B1B68002B0CD0524B1B6843
:100B5C000133514A1360524B1B680133504A1360E6
:100B6C004E4B00221A60012000F0CAFA0346002BFB
:100B7C001CD04C4B1B68002B06D004213220FFF7F5
:100B8C0045FD484B00221A60414B1B69012B0DD1CE
:100B9C0004213220FFF73AFD3F4B1B6801333E4ADC
:100BAC0013603F4B1B6801333D4A1360022000F079
:100BBC008DFA0346002B02D03B4B01221A60022017
:100BCC0000F084FA0346002B28D1374B1B68002B0E
:100BDC0024D0364B01221A6000216420FFF716FD49
:100BEC0001216420FFF712FD314B1B682C4A136066
:100BFC00304B1B68304A1360304B1B68264A13601D
:100C0C0001224021234800F0B4FF01224FF400716F
:100C1C00204800F0AEFF244B00221A60002000F0A8
:100C2C0055FA0346002B02D0254B01221A600020F6
:100C3C0000F04CFA0346002B27D1214B1B68002BEC
:100C4C0023D01A4B01221A6000216420FFF7DEFC2E
:100C5C0001216420FFF7DAFC012240210D4800F04D
:100C6C0088FF01224FF400710A4800F082FF144BF8
:100C7C0000221A6009E000BF08E000BF06E000BFD8
:100C8C0004E000BF02E000BF00E000BF00BF80BD79
:100C9C008000002000080140040000204C000020CF
:100CAC00000000200C000020500000205400002008
:100CBC00A0030020A803002008000020A4030020AB
:100CCC004800002080B500AF4F4B1B68022B07D0AB
:100CDC00022B00F38F80002B30D0012B5CD089E0ED
:100CEC0000221021494800F044FF012220214748EE
:100CFC0000F03FFF01224021444800F03AFF444BF2
:100D0C001B6801211846FFF7ABFB424B1B68012BFC
:100D1C0072D100216420FFF779FC3D4B1B68013B2D
:100D2C003B4A13603A4B1B68002B65DA364B0022AA
:100D3C001A60394B1B68394A13605DE0012210219F
:100D4C00324800F016FF01222021304800F011FF3C
:100D5C00002240212D4800F00CFF304B1B68012174
:100D6C001846FFF77DFB2B4B1B68012B46D100214E
:100D7C006420FFF74BFC294B1B68013B274A13608F
:100D8C00264B1B68002B39DA1F4B01221A60244BAF
:100D9C001B68244A136031E0012210211B4800F02B
:100DAC00E8FE00222021194800F0E3FE0122402138
:100DBC00164800F0DEFE1B4B1B6801211846FFF79E
:100DCC004FFB144B1B68012B1AD100216420FFF739
:100DDC001DFC144B1B68013B124A1360114B1B6822
:100DEC00002B0DDA084B02221A600F4B1B68084AC5
:100DFC00136005E000BF04E000BF02E000BF00E0AC
:100E0C0000BF00BF80BD00BFAC0300200008014044
:100E1C00C40300208000002004000020B003002048
:100E2C0008000020C00300200000002080B500AFA7
:100E3C00524B1B68022B07D0022B00F39580002B22
:100E4C0032D0012B60D08FE0002280214C4800F082
:100E5C0090FE01224FF48071494800F08AFE012275
:100E6C004FF40071464800F084FE464B1B6802218B
:100E7C001846FFF7F5FA444B5B68012B76D101213C
:100E8C006420FFF7C3FB3F4B1B68013B3D4A1360DB
:100E9C003C4B1B68002B69DA384B00221A603B4B29
:100EAC001B683B4A136061E001228021344800F04A
:100EBC0060FE01224FF48071314800F05AFE00228E
:100ECC004FF400712E4800F054FE314B1B68022188
:100EDC001846FFF7C5FA2C4B5B68012B48D1012152
:100EEC006420FFF793FB2A4B1B68013B284A1360D5
:100EFC00274B1B68002B3BDA204B01221A60254B39
:100F0C001B68254A136033E0012280211C4800F045
:100F1C0030FE00224FF48071194800F02AFE0122A5
:100F2C004FF40071164800F024FE1B4B1B68022185
:100F3C001846FFF795FA144B5B68012B1AD1012167
:100F4C006420FFF763FB144B1B68013B124A1360D0
:100F5C00114B1B68002B0DDA084B02221A600F4B49
:100F6C001B68084A136005E000BF04E000BF02E004
:100F7C0000BF00E000BF00BF80BD00BFC803002061
:100F8C0000080140B803002080000020040000206D
:100F9C00B403002008000020BC0300200000002047
:100FAC0080B483B000AF0023FB710EE0FB790B4AD9
:100FBC000121D154FB790A4A0121D154FB79094A08
:100FCC000121D154FB790133FB71FB79022BEDD953
:100FDC0000BF00BF0C37BD4680BC70475C000020D2
:100FEC00600000205800002090B583B000AF03468D
:100FFC00FB71FA79FB792F49895C2F4AD154FB7923
:10100C00002B0AD1FC794FF480712C4800F09AFD2A
:10101C0003461A46274B1A5517E0FB79012B0AD1C8
:10102C00FC794FF40071254800F08CFD03461A46FC
:10103C00204B1A5509E0FC794FF480611F4800F0F1
:10104C0081FD03461A461B4B1A55FB79194AD25C93
:10105C00FB791949CB5C9A4228D1FA79FB7915496D
:10106C00895C174AD154FB79124AD35C002B14D1FA
:10107C00FB79144A32F81330632B09D8FB79114AE7
:10108C0032F81320013291B20E4A22F813100DE0FF
:10109C00FB790D4A0121D15408E0FB79094A002162
:1010AC0022F81310FB79084A0021D15400BF0C37E9
:1010BC00BD4690BD5C00002060000020000C01408B
:1010CC0058000020680000206400002080B483B029
:1010DC0000AF0346FB71FB79022B01D9002307E01B
:1010EC00FB79064AD35C002B0CBF01230023DBB237
:1010FC0018460C37BD4680BC704700BF5800002016
:10110C0080B483B000AF0346FB71FB79022B01D98D
:10111C00002307E0FB79064AD35C012B0CBF0123AB
:10112C000023DBB218460C37BD4680BC704700BFAD
:10113C006400002080B500AF00F01AFA00F02EF821
:10114C0000F0DAF800F066F8114801F06FF9FFF7DB
:10115C0027FF02211920FFF759FAFFF797FA0D4BD9
:10116C009B68012BF9D102211920FFF74FFA0A4B8A
:10117C001B685A1C08490A601846FFF7B1F9064B60
:10118C001B68032BE9DD044B00221A60E5E700BF66
:10119C00CC030020800000204400002080B590B0DB
:1011AC0000AF07F1180328220021184601F0EEFCCD
:1011BC003B1D00221A605A609A60DA601A610223A1
:1011CC00BB610123BB621023FB6200237B6307F12D
:1011DC001803184600F0FEFC0346002B01D000F06B
:1011EC000DF90F237B600023BB600023FB60002301
:1011FC003B6100237B613B1D0021184600F06AFF18
:10120C000346002B01D000F0F9F800BF4037BD4673
:10121C0080BD000080B588B000AF07F10C03002240
:10122C001A605A609A60DA603B1D00221A605A609C
:10123C002C4B4FF080421A602A4B41F63F725A6099
:10124C00284B00229A60274B0922DA60254B00229A
:10125C001A61244B00229A61224801F097F8034648
:10126C00002B01D000F0CAF84FF48053FB6007F15B
:10127C000C0319461B4801F015FA0346002B01D04C
:10128C0000F0BCF800237B600023BB603B1D1946BB
:10129C00144801F0EDFB0346002B01D000F0AEF832
:1012AC00104B5B681A46104B1A600E4BDB681A46E3
:1012BC000E4B1A600C4B1B6801330C4A126801323E
:1012CC0002FB03F30A4A92FBF3F3FB614FF47A72CD
:1012DC00FB6992FBF3F3074A136000BF2037BD464E
:1012EC0080BD00BFCC030020380000203C00002053
:1012FC0000127A004000002080B586B000AF07F1E4
:10130C00080300221A605A609A60DA60284B9B69C5
:10131C00274A43F004039361254B9B6903F00403B4
:10132C007B607B68224B9B69214A43F008039361E5
:10133C001F4B9B6903F008033B603B68002243F69C
:10134C00F0711C4800F015FC00227F211A4800F0B7
:10135C0010FC43F6F073BB600123FB6000233B6180
:10136C0002237B6107F108031946124800F070FA5A
:10137C007F23BB600123FB6000233B6102237B6165
:10138C0007F1080319460C4800F062FA4FF4E063C9
:10139C00BB600023FB6001233B6107F10803194686
:1013AC00054800F055FA00BF1837BD4680BD00BF98
:1013BC000010024000080140000C014080B582B0D2
:1013CC0000AF78600020FFF739F90120FFF736F9FC
:1013DC000220FFF733F90320FFF730F90420FFF761
:1013EC002DF90020FFF700FE0120FFF7FDFD022084
:1013FC00FFF7FAFD00BF0837BD4680BD80B400AFD3
:10140C0072B600BFFEE7000080B485B000AF154B8C
:10141C009B69144A43F001039361124B9B6903F0DF
:10142C000103BB60BB680F4BDB690E4A43F0805372
:10143C00D3610C4BDB6903F080537B607B680A4BF8
:10144C005B68FB60FB6823F0E063FB60FB6843F0C8
:10145C008063FB60044AFB68536000BF1437BD46D1
:10146C0080BC7047001002400000014080B584B081
:10147C0000AF78607B681B68B3F1804F13D10C4BC5
:10148C00DB690B4A43F00103D361094BDB6903F0C1
:10149C000103FB60FB68002200211C2000F0A1F975
:1014AC001C2000F0BAF900BF1037BD4680BD00BF4C
:1014BC000010024080B400AFFEE780B400AFFEE73E
:1014CC0080B400AFFEE780B400AFFEE780B400AF9D
:1014DC00FEE780B400AF00BFBD4680BC704780B44F
:1014EC0000AF00BFBD4680BC704780B400AF00BFEA
:1014FC00BD4680BC704780B500AF00F07FF800BFE0
:10150C0080BD000080B500AF024800F0DBFF00BFDB
:10151C0080BD00BFCC03002080B400AF00BFBD462F
:10152C0080BC7047FFF7F8FF0B480C490C4A0023AE
:10153C0002E0D458C4500433C4188C42F9D3094A7D
:10154C00094C002301E013600432A242FBD301F0EA
:10155C00F9FAFFF7EFFD7047000000201C00002097
:10156C00EC2B00081C00002018040020FEE70000F3
:10157C0080B500AF084B1B68074A43F0100313609B
:10158C00032000F023F90F2000F008F8FFF73CFFD0
:10159C000023184680BD00BF0020024080B582B0F9
:1015AC0000AF7860124B1A68124B1B7819464FF437
:1015BC007A73B3FBF1F3B2FBF3F3184600F03BF98B
:1015CC000346002B01D001230EE07B680F2B0AD8B9
:1015DC00002279684FF0FF3000F003F9064A7B686F
:1015EC001360002300E0012318460837BD4680BD78
:1015FC0010000020180000201400002080B400AF60
:10160C00054B1B781A46054B1B681344034A1360A1
:10161C0000BFBD4680BC7047180000201404002099
:10162C0080B400AF024B1B681846BD4680BC7047A7
:10163C001404002080B485B000AF78607B6803F0A0
:10164C000703FB600C4BDB68BB60BA684FF6FF030B
:10165C001340BB60FB681A02BB68134343F0BF63C3
:10166C0043F40033BB60044ABB68D36000BF14373B
:10167C00BD4680BC704700BF00ED00E080B400AFF9
:10168C00044BDB681B0A03F007031846BD4680BCFD
:10169C00704700BF00ED00E080B483B000AF03469C
:1016AC00FB7197F90730002B0BDBFB7903F01F0262
:1016BC00064997F907305B09012000FA02F241F85C
:1016CC00232000BF0C37BD4680BC704700E100E012
:1016DC0080B483B000AF03463960FB7197F90730D3
:1016EC00002B0ADB3B68DAB20C4997F90730120180
:1016FC00D2B20B4483F800230AE03B68DAB2084903
:10170C00FB7903F00F03043B1201D2B20B441A769F
:10171C0000BF0C37BD4680BC704700BF00E100E045
:10172C0000ED00E080B489B000AFF860B9607A6079
:10173C00FB6803F00703FB61FB69C3F10703042B90
:10174C0028BF0423BB61FB690433062B02D9FB6958
:10175C00033B00E000237B614FF0FF32BB6902FAD0
:10176C0003F3DA43BB681A407B699A404FF0FF31B0
:10177C007B6901FA03F3D9437B680B40134318468A
:10178C002437BD4680BC704780B582B000AF78600E
:10179C007B68013BB3F1807F01D301230FE00A4A40
:1017AC007B68013B53600F214FF0FF30FFF790FF38
:1017BC00054B00229A60044B07221A60002318463E
:1017CC000837BD4680BD00BF10E000E080B582B098
:1017DC0000AF78607868FFF72DFF00BF0837BD4673
:1017EC0080BD80B586B000AF0346B9607A60FB73EC
:1017FC0000237B61FFF742FF78617A68B9687869EA
:10180C00FFF790FF024697F90F3011461846FFF785
:10181C005FFF00BF1837BD4680BD80B582B000AFFA
:10182C000346FB7197F907301846FFF735FF00BFE9
:10183C000837BD4680BD80B582B000AF786078684F
:10184C00FFF7A2FF034618460837BD4680BD0000CF
:10185C0080B48BB000AF7860396000237B620023CA
:10186C003B6248E101227B6A02FA03F3FB613B68AD
:10187C001B68FA691340BB61BA69FB699A4240F074
:10188C0037813B685B68A34A93425ED0A14A93427E
:10189C0075D8A14A934258D09F4A93426FD89F4A19
:1018AC00934252D09D4A934269D89D4A93424CD060
:1018BC009B4A934263D89B4A934246D0994A93429F
:1018CC005DD8122B2AD8122B59D801A252F823F02A
:1018DC005719000831190008431900088519000828
:1018EC008B1900088B1900088B1900088B1900083C
:1018FC008B1900088B1900088B1900088B1900082C
:10190C008B1900088B1900088B1900088B1900081B
:10191C008B190008391900084D190008824A9342A6
:10192C0013D02CE03B68DB683B6229E03B68DB684A
:10193C0004333B6224E03B68DB6808333B621FE006
:10194C003B68DB680C333B621AE03B689B68002BFE
:10195C0002D104233B6213E03B689B68012B05D149
:10196C0008233B627B68FA691A6109E008233B6231
:10197C007B68FA695A6103E000233B6200E000BF18
:10198C00BB69FF2B01D87B6801E07B6804337B616A
:10199C00BB69FF2B02D87B6A9B0002E07B6A083B89
:1019AC009B003B617B691A680F213B6901FA03F3C9
:1019BC00DB431A40396A3B6901FA03F31A437B692A
:1019CC001A603B685B6803F08053002B00F090803A
:1019DC00564B9B69554A43F001039361534B9B69EA
:1019EC0003F00103BB60BB68514A7B6A9B0802335E
:1019FC0052F82330FB607B6A03F003039B000F2239
:101A0C0002FA03F3DB43FA681340FB607B68494A34
:101A1C0093420DD07B68484A934207D07B68474A73
:101A2C00934201D1022304E0032302E0012300E0EE
:101A3C0000237A6A02F0030292009340FA6813437F
:101A4C00FB603B497B6A9B080233FA6841F8232010
:101A5C003B685B6803F48013002B06D0384B9A6804
:101A6C003749BB6913438B6006E0354B9A68BB69F9
:101A7C00DB43334913408B603B685B6803F4001312
:101A8C00002B06D02E4BDA682D49BB691343CB6073
:101A9C0006E02B4BDA68BB69DB4329491340CB606A
:101AAC003B685B6803F40033002B06D0244B5A6868
:101ABC002349BB6913434B6006E0214B5A68BB6951
:101ACC00DB431F4913404B603B685B6803F4803376
:101ADC00002B06D01A4B1A681949BB6913430B60CB
:101AEC0006E0174B1A68BB69DB43154913400B60C2
:101AFC007B6A01337B623B681A687B6A22FA03F3C8
:101B0C00002B7FF4AFAE00BF00BF2C37BD4680BCAE
:101B1C00704700BF0000321000003110000022108E
:101B2C0000002110000012100000111000100240E3
:101B3C000000014000080140000C01400010014071
:101B4C000004014080B485B000AF78600B467B8008
:101B5C007B689A687B881340002B02D00123FB73AF
:101B6C0001E00023FB73FB7B18461437BD4680BC99
:101B7C00704780B483B000AF78600B467B8013460F
:101B8C007B707B78002B03D07A887B681A6103E02A
:101B9C007B881A047B681A6100BF0C37BD4680BC79
:101BAC00704780B485B000AF78600B467B807B6853
:101BBC00DB68FB607A88FB6813401A04FB68D94326
:101BCC007B880B401A437B681A6100BF1437BD46F3
:101BDC0080BC704780B586B000AF78607B68002B06
:101BEC0001D101236CE27B681B6803F00103002B1D
:101BFC0000F08780924B5B6803F00C03042B0CD035
:101C0C008F4B5B6803F00C03082B12D18C4B5B6879
:101C1C0003F48033B3F5803F0BD1894B1B6803F47D
:101C2C000033002B6CD07B685B68002B68D10123E0
:101C3C0046E27B685B68B3F5803F06D1804B1B683E
:101C4C007F4A43F4803313602EE07B685B68002B83
:101C5C000CD17B4B1B687A4A23F480331360784B8E
:101C6C001B68774A23F4802313601DE07B685B6854
:101C7C00B3F5A02F0CD1724B1B68714A43F480232F
:101C8C0013606F4B1B686E4A43F4803313600BE098
:101C9C006B4B1B686A4A23F480331360684B1B68D8
:101CAC00674A23F4802313607B685B68002B13D096
:101CBC00FFF7B6FC386108E0FFF7B2FC02463B695F
:101CCC00D31A642B01D90323FAE15D4B1B6803F48F
:101CDC000033002BF0D014E0FFF7A2FC386108E0D1
:101CEC00FFF79EFC02463B69D31A642B01D90323F0
:101CFC00E6E1534B1B6803F40033002BF0D100E0FA
:101D0C0000BF7B681B6803F00203002B63D04C4BB5
:101D1C005B6803F00C03002B0BD0494B5B6803F0A2
:101D2C000C03082B1CD1464B5B6803F48033002B4F
:101D3C0016D1434B1B6803F00203002B05D07B68C4
:101D4C001B69012B01D00123BAE13D4B1B6823F029
:101D5C00F8027B685B69DB00394913430B603AE09E
:101D6C007B681B69002B20D0364B01221A60FFF7D1
:101D7C0057FC386108E0FFF753FC02463B69D31A65
:101D8C00022B01D903239BE12D4B1B6803F00203AB
:101D9C00002BF0D02A4B1B6823F0F8027B685B69A0
:101DAC00DB00274913430B6015E0264B00221A6019
:101DBC00FFF736FC386108E0FFF732FC02463B695E
:101DCC00D31A022B01D903237AE11D4B1B6803F0B4
:101DDC000203002BF0D17B681B6803F00803002B77
:101DEC003AD07B689B69002B19D0174B01221A60E3
:101DFC00FFF716FC386108E0FFF712FC02463B695E
:101E0C00D31A022B01D903235AE10D4B5B6A03F061
:101E1C000203002BF0D0012000F09AFA1CE00A4BD0
:101E2C0000221A60FFF7FCFB38610FE0FFF7F8FBAC
:101E3C0002463B69D31A022B08D9032340E100BFA9
:101E4C000010024000004242800442429E4B5B6AFA
:101E5C0003F00203002BE9D17B681B6803F0040339
:101E6C00002B00F0A6800023FB75974BDB6903F079
:101E7C008053002B0DD1944BDB69934A43F0805374
:101E8C00D361914BDB6903F08053BB60BB680123CA
:101E9C00FB758E4B1B6803F48073002B18D18B4B96
:101EAC001B688A4A43F480731360FFF7B9FB3861EF
:101EBC0008E0FFF7B5FB02463B69D31A642B01D946
:101ECC000323FDE0814B1B6803F48073002BF0D0DF
:101EDC007B68DB68012B06D17B4B1B6A7A4A43F08B
:101EEC00010313622DE07B68DB68002B0CD1764B71
:101EFC001B6A754A23F001031362734B1B6A724A07
:101F0C0023F0040313621CE07B68DB68052B0CD107
:101F1C006D4B1B6A6C4A43F0040313626A4B1B6AD9
:101F2C00694A43F0010313620BE0674B1B6A664A74
:101F3C0023F001031362644B1B6A634A23F004030E
:101F4C0013627B68DB68002B15D0FFF769FB3861E7
:101F5C000AE0FFF765FB02463B69D31A41F288326F
:101F6C00934201D90323ABE0574B1B6A03F00203E6
:101F7C00002BEED014E0FFF753FB38610AE0FFF7BB
:101F8C004FFB02463B69D31A41F28832934201D986
:101F9C00032395E04C4B1B6A03F00203002BEED19C
:101FAC00FB7D012B05D1484BDB69474A23F080535D
:101FBC00D3617B68DB69002B00F08180424B5B684E
:101FCC0003F00C03082B61D07B68DB69022B46D134
:101FDC003F4B00221A60FFF723FB386108E0FFF744
:101FEC001FFB02463B69D31A022B01D9032367E07E
:101FFC00354B1B6803F00073002BF0D17B681B6A18
:10200C00B3F5803F08D1304B5B6823F400327B681A
:10201C009B682D4913434B602B4B5B6823F4741264
:10202C007B68196A7B685B6A0B43274913434B60D7
:10203C00274B01221A60FFF7F3FA386108E0FFF72B
:10204C00EFFA02463B69D31A022B01D9032337E07E
:10205C001D4B1B6803F00073002BF0D02FE01C4BC2
:10206C0000221A60FFF7DCFA386108E0FFF7D8FAB3
:10207C0002463B69D31A022B01D9032320E0124BF1
:10208C001B6803F00073002BF0D118E07B68DB6950
:10209C00012B01D1012313E00B4B5B68FB60FB6848
:1020AC0003F480327B681B6A9A4206D1FB6803F406
:1020BC0070127B685B6A9A4201D0012300E0002316
:1020CC0018461837BD4680BD001002400070004015
:1020DC006000424280B584B000AF786039607B68A4
:1020EC00002B01D10123D0E06A4B1B6803F00703DE
:1020FC003A689A4210D9674B1B6823F0070265496E
:10210C003B6813430B60634B1B6803F007033A688F
:10211C009A4201D00123B8E07B681B6803F00203EC
:10212C00002B20D07B681B6803F00403002B05D028
:10213C00594B5B68584A43F4E06353607B681B68F7
:10214C0003F00803002B05D0534B5B68524A43F451
:10215C0060535360504B5B6823F0F0027B689B68C4
:10216C004D4913434B607B681B6803F00103002B44
:10217C0040D07B685B68012B07D1474B1B6803F48D
:10218C000033002B15D101237FE07B685B68022BA9
:10219C0007D1414B1B6803F00073002B09D10123BD
:1021AC0073E03D4B1B6803F00203002B01D10123AC
:1021BC006BE0394B5B6823F003027B685B68364944
:1021CC0013434B60FFF72CFAF8600AE0FFF728FA8C
:1021DC000246FB68D31A41F28832934201D9032399
:1021EC0053E02D4B5B6803F00C027B685B689B0033
:1021FC009A42EBD1274B1B6803F007033A689A42CB
:10220C0010D2244B1B6823F0070222493B6813436E
:10221C000B60204B1B6803F007033A689A4201D00D
:10222C00012332E07B681B6803F00403002B08D009
:10223C00194B5B6823F4E0627B68DB681649134337
:10224C004B607B681B6803F00803002B09D0124B12
:10225C005B6823F460527B681B69DB000E491343F7
:10226C004B6000F021F802460B4B5B681B0903F036
:10227C000F030A49CB5C22FA03F3094A1360094B9A
:10228C001B681846FFF78AF9002318461037BD461D
:10229C0080BD00BF0020024000100240C02B00088F
:1022AC00100000201400002080B487B000AF002381
:1022BC00FB600023BB6000237B6100237B60002359
:1022CC003B611E4B5B68FB60FB6803F00C03042B4B
:1022DC0002D0082B03D027E0194B3B6127E0FB68A9
:1022EC009B0C03F00F03174AD35C7B60FB6803F471
:1022FC008033002B10D0114B5B685B0C03F0010397
:10230C00114AD35CBB607B680D4A02FB03F2BB68CD
:10231C00B2FBF3F37B6104E07B680C4A02FB03F332
:10232C007B617B693B6102E0054B3B6100BF3B6914
:10233C0018461C37BD4680BC704700BF00100240D9
:10234C0000127A00D02B0008E02B000800093D0099
:10235C0080B485B000AF78600A4B1B680A4AA2FBB8
:10236C0003235B0A7A6802FB03F3FB6000BFFB6884
:10237C005A1EFA60002BF9D100BF00BF1437BD46BE
:10238C0080BC704710000020D34D621080B582B025
:10239C0000AF78607B68002B01D1012341E07B68A2
:1023AC0093F83D30DBB2002B06D17B68002283F81A
:1023BC003C207868FFF75AF87B68022283F83D20AE
:1023CC007B681A687B6804331946104600F056FA8D
:1023DC007B68012283F846207B68012283F83E202B
:1023EC007B68012283F83F207B68012283F8402020
:1023FC007B68012283F841207B68012283F842200C
:10240C007B68012283F843207B68012283F84420F7
:10241C007B68012283F845207B68012283F83D20EC
:10242C00002318460837BD4680BD000080B485B037
:10243C0000AF78607B6893F83D30DBB2012B01D0A4
:10244C00012335E07B68022283F83D207B681B6802
:10245C00DA687B681B6842F00102DA607B681B68F3
:10246C00164A934209D07B681B68B3F1804F04D0A5
:10247C007B681B68124A934211D17B681B689B686E
:10248C0003F00703FB60FB68062B10D07B681B680E
:10249C001A687B681B6842F001021A6007E07B68CF
:1024AC001B681A687B681B6842F001021A600023E3
:1024BC0018461437BD4680BC704700BF002C014045
:1024CC000004004080B584B000AF78607B681B6866
:1024DC00DB68FB607B681B681B69BB60BB6803F037
:1024EC000203002B20D0FB6803F00203002B1BD04F
:1024FC007B681B686FF002021A617B6801221A77F5
:10250C007B681B689B6903F00303002B03D078687E
:10251C0000F098F905E0786800F08BF9786800F025
:10252C009AF97B6800221A77BB6803F00403002B2E
:10253C0020D0FB6803F00403002B1BD07B681B68C6
:10254C006FF004021A617B6802221A777B681B68A1
:10255C009B6903F44073002B03D0786800F072F988
:10256C0005E0786800F065F9786800F074F97B682C
:10257C0000221A77BB6803F00803002B20D0FB68FD
:10258C0003F00803002B1BD07B681B686FF008025C
:10259C001A617B6804221A777B681B68DB6903F07D
:1025AC000303002B03D0786800F04CF905E0786841
:1025BC0000F03FF9786800F04EF97B6800221A773A
:1025CC00BB6803F01003002B20D0FB6803F0100352
:1025DC00002B1BD07B681B686FF010021A617B68A4
:1025EC0008221A777B681B68DB6903F44073002BA5
:1025FC0003D0786800F026F905E0786800F019F946
:10260C00786800F028F97B6800221A77BB6803F021
:10261C000103002B0CD0FB6803F00103002B07D047
:10262C007B681B686FF001021A617868FEF7C6FEC2
:10263C00BB6803F08003002B0CD0FB6803F0800315
:10264C00002B07D07B681B686FF080021A617868DA
:10265C0000F06FFABB6803F04003002B0CD0FB6852
:10266C0003F04003002B07D07B681B686FF040021F
:10267C001A61786800F0F8F8BB6803F02003002BAF
:10268C000CD0FB6803F02003002B07D07B681B6881
:10269C006FF020021A61786800F042FA00BF103720
:1026AC00BD4680BD80B584B000AF78603960002332
:1026BC00FB737B6893F83C30012B01D10223B4E00F
:1026CC007B68012283F83C207B68022283F83D2042
:1026DC007B681B689B68BB60BB6823F07703BB609F
:1026EC00BB6823F47F43BB607B681B68BA689A6045
:1026FC003B681B68B3F5005F3ED0B3F5005F00F29A
:10270C008780B3F5805F00F08680B3F5805F7FD85B
:10271C00702B1AD0702B7BD8602B50D0602B77D8B5
:10272C00502B3CD0502B73D8402B58D0402B6FD80B
:10273C00302B64D0302B6BD8202B60D0202B67D85B
:10274C00002B5CD0102B5AD062E07B6818683B6879
:10275C0099683B685A683B68DB6800F06AF97B68EB
:10276C001B689B68BB60BB6843F07703BB607B68EE
:10277C001B68BA689A604FE07B6818683B68996878
:10278C003B685A683B68DB6800F053F97B681B6850
:10279C009A687B681B6842F480429A603CE07B68D4
:1027AC0018683B6859683B68DB681A4600F0CAF841
:1027BC007B681B685021184600F021F92CE07B68DF
:1027CC0018683B6859683B68DB681A4600F0E8F803
:1027DC007B681B686021184600F011F91CE07B68CF
:1027EC0018683B6859683B68DB681A4600F0AAF821
:1027FC007B681B684021184600F001F90CE07B68EF
:10280C001A683B681B681946104600F0F8F803E09C
:10281C000123FB7300E000BF7B68012283F83D209D
:10282C007B68002283F83C20FB7B18461037BD46A2
:10283C0080BD80B483B000AF786000BF0C37BD465C
:10284C0080BC704780B483B000AF786000BF0C3799
:10285C00BD4680BC704780B483B000AF786000BFC9
:10286C000C37BD4680BC704780B483B000AF786035
:10287C0000BF0C37BD4680BC7047000080B485B0EB
:10288C0000AF786039607B681B68FB607B682B4A03
:10289C00934207D07B68B3F1804F03D07B68284A02
:1028AC00934208D1FB6823F07003FB603B685B68C4
:1028BC00FA681343FB607B68204A934207D07B681D
:1028CC00B3F1804F03D07B681D4A934208D1FB685B
:1028DC0023F44073FB603B68DB68FA681343FB60CE
:1028EC00FB6823F080023B685B691343FB607B68E9
:1028FC00FA681A603B689A687B68DA623B681A6807
:10290C007B689A627B680D4A934203D13B681A69D3
:10291C007B681A637B6801225A617B681B6903F030
:10292C000103002B05D07B681B6923F001027B6837
:10293C001A6100BF1437BD4680BC7047002C0140A3
:10294C000004004080B487B000AFF860B9607A60D2
:10295C00FB681B6A7B61FB681B6A23F00102FB6846
:10296C001A62FB689B693B613B6923F0F0033B6196
:10297C007B681B013A6913433B617B6923F00A03B3
:10298C007B617A69BB6813437B61FB683A699A6126
:10299C00FB687A691A6200BF1C37BD4680BC704761
:1029AC0080B487B000AFF860B9607A60FB681B6ACE
:1029BC007B61FB681B6A23F01002FB681A62FB68E0
:1029CC009B693B613B6923F470433B617B681B0350
:1029DC003A6913433B617B6923F0A0037B61BB68BD
:1029EC001B017A6913437B61FB683A699A61FB6846
:1029FC007A691A6200BF1C37BD4680BC704780B430
:102A0C0085B000AF786039607B689B68FB60FB68C1
:102A1C0023F07003FB603A68FB68134343F0070331
:102A2C00FB607B68FA689A6000BF1437BD4680BCB7
:102A3C00704780B487B000AFF860B9607A603B60D3
:102A4C00FB689B687B617B6923F47F437B613B68FC
:102A5C001A027B681A43BB6813437A6913437B6180
:102A6C00FB687A699A6000BF1C37BD4680BC704712
:102A7C0080B485B000AF786039607B6893F83C30E7
:102A8C00012B01D1022341E07B68012283F83C2019
:102A9C007B68022283F83D207B681B685B68FB60C7
:102AAC007B681B689B68BB60FB6823F07003FB6052
:102ABC003B681B68FA681343FB607B681B68FA6809
:102ACC005A607B681B68144A934209D07B681B6868
:102ADC00B3F1804F04D07B681B68104A93420CD131
:102AEC00BB6823F08003BB603B685B68BA68134328
:102AFC00BB607B681B68BA689A607B68012283F8AC
:102B0C003D207B68002283F83C20002318461437B4
:102B1C00BD4680BC704700BF002C01400004004043
:102B2C0080B483B000AF786000BF0C37BD4680BC6A
:102B3C00704780B483B000AF786000BF0C37BD46DF
:102B4C0080BC704770B500260C4D0D4C641BA41056
:102B5C00A64209D100F022F800260A4D0A4C641B4B
:102B6C00A410A64205D170BD55F8043B9847013618
:102B7C00EEE755F8043B98470136F2E7E42B0008E2
:102B8C00E42B0008E42B0008E82B00080346024461
:102B9C00934200D1704703F8011BF9E7F8B500BF69
:102BAC00F8BC08BC9E467047F8B500BFF8BC08BC22
:042BBC009E4670477A
:102BC00000000000000000000102030406070809DD
:102BD00002030405060708090A0B0C0D0E0F10105E
:042BE00001020000EE
:042BE40031010008B3
:042BE8000D010008D3
:102BEC0004000000020000000100000001000000D1
:0C2BFC0000127A00100000000100000030
:0400000508001531A9
:00000001FF
