:020000040800F2
:100000000028002079180008F5170008FB170008E1
:1000100001180008071800080D180008000000006B
:10002000000000000000000000000000131800089D
:100030001F180008000000002B18000837180008DF
:10004000C1180008C1180008C1180008C11800082C
:10005000C1180008C1180008C1180008C11800081C
:10006000C1180008C1180008C1180008C11800080C
:10007000C1180008C1180008C1180008C1180008FC
:10008000C1180008C1180008C1180008C1180008EC
:10009000C1180008C1180008C1180008C1180008DC
:1000A000C1180008C1180008C1180008C1180008CC
:1000B00045180008C118000800000000C118000819
:1000C000C11800080000000000000000C11800086E
:1000D00000000000C11800085918000800000000C6
:1000E000C1180008C1180008C1180008000000006D
:1000F0000000000000000000000000000000000000
:0C01000000000000000000005FF808F1A3
:10010C0010B5054C237833B9044B13B10448AFF345
:10011C0000800123237010BD1C0000200000000093
:10012C001C3B000808B5034B1BB103490348AFF354
:10013C00008008BD00000000200000201C3B0008CF
:10014C0080B582B000AF78607B68092B00F28081AB
:10015C0001A252F823F000BF8D010008D501000860
:10016C001D02000865020008AD020008F502000837
:10017C003D03000885030008CD03000815040008A2
:10018C0000220121B54801F04AFF00220221B348A8
:10019C0001F045FF00220421B04801F040FF00228D
:1001AC000821AE4801F03BFF00221021AB4801F0C2
:1001BC0036FF00222021A94801F031FF0122402105
:1001CC00A64801F02CFF44E101220121A34801F0D3
:1001DC0026FF00220221A14801F021FF0022042168
:1001EC009E4801F01CFF012208219C4801F017FFDA
:1001FC0001221021994801F012FF01222021974879
:10020C0001F00DFF01224021944801F008FF20E18C
:10021C0000220121914801F002FF002202218F48A7
:10022C0001F0FDFE012204218C4801F0F8FE0022B1
:10023C0008218A4801F0F3FE00221021874801F0C2
:10024C00EEFE01222021854801F0E9FE002240212A
:10025C00824801F0E4FEFCE0002201217F4801F01D
:10026C00DEFE002202217D4801F0D9FE002204218D
:10027C007A4801F0D4FE00220821784801F0CFFE24
:10028C0001221021754801F0CAFE01222021734879
:10029C0001F0C5FE00224021704801F0C0FED8E0FC
:1002AC00012201216D4801F0BAFE002202216B48A7
:1002BC0001F0B5FE00220421684801F0B0FE0122D5
:1002CC000821664801F0ABFE01221021634801F0C1
:1002DC00A6FE00222021614801F0A1FE002240214F
:1002EC005E4801F09CFEB4E0002201215B4801F065
:1002FC0096FE01220221594801F091FE00220421B0
:10030C00564801F08CFE00220821544801F087FE6B
:10031C0001221021514801F082FE002220214F4879
:10032C0001F07DFE002240214C4801F078FE90E067
:10033C0000220121494801F072FE012202214748A6
:10034C0001F06DFE00220421444801F068FE0022F9
:10035C000821424801F063FE002210213F4801F0C1
:10036C005EFE002220213D4801F059FE0022402172
:10037C003A4801F054FE6CE000220121374801F0AC
:10038C004EFE00220221354801F049FE00220421D4
:10039C00324801F044FE01220821304801F03FFEB2
:1003AC00012210212D4801F03AFE012220212B4878
:1003BC0001F035FE01224021284801F030FE48E0D2
:1003CC0000220121254801F02AFE002202212348A7
:1003DC0001F025FE00220421204801F020FE00221D
:1003EC0008211E4801F01BFE002210211B4801F0C1
:1003FC0016FE00222021194801F011FE0022402196
:10040C00164801F00CFE24E000220121134801F0F3
:10041C0006FE00220221114801F001FE00220421F7
:10042C000E4801F0FCFD002208210C4801F0F7FDFC
:10043C0001221021094801F0F2FD00222021074879
:10044C0001F0EDFD00224021044801F0E8FD00E040
:10045C0000BF00BF0837BD4680BD00BF000C014087
:10046C0080B483B000AF786039603B68012B17D142
:10047C007B68194A82FB03129210DB17D31A174AB6
:10048C0013607968144B83FB01239A10CB17D21A93
:10049C0013469B0013445B00CA1A104B5A6016E0BB
:1004AC007B680D4A82FB03129210DB17D31A0B4A9E
:1004BC0093607968084B83FB01239A10CB17D21AEF
:1004CC0013469B0013445B00CA1A044BDA6000BF4E
:1004DC000C37BD4680BC7047676666667C000020A2
:1004EC0080B582B000AF78607B68032B00F284800B
:1004FC0001A252F823F000BF1505000851050008B1
:10050C008D050008C905000800224FF480613D48A4
:10051C0001F085FD01224FF400613A4801F07FFDA6
:10052C0001224FF48051374801F079FD01224FF43C
:10053C000051344801F073FD334B1B681846FFF72C
:10054C00FFFD5AE001224FF480612E4801F067FD57
:10055C0000224FF400612B4801F061FD01224FF4A1
:10056C008051284801F05BFD01224FF400512548D1
:10057C0001F055FD244B5B681846FFF7E1FD3CE0AC
:10058C0001224FF480611F4801F049FD01224FF414
:10059C0000611C4801F043FD00224FF480511948C2
:1005AC0001F03DFD01224FF40051164801F037FDDA
:1005BC00154B9B681846FFF7C3FD1EE001224FF454
:1005CC008061104801F02BFD01224FF400610D48B1
:1005DC0001F025FD01224FF480510A4801F01FFD66
:1005EC0000224FF40051074801F019FD064BDB685F
:1005FC001846FFF7A5FD00E000BF00BF0837BD4659
:10060C0080BD00BF000801407C00002080B483B096
:10061C0000AF78603960074A3B68002142F823102C
:10062C0005493B687A6841F8232000BF0C37BD466A
:10063C0080BC70478C0000201C02002080B483B06A
:10064C0000AF78600F4A7B6852F82330002B13DD23
:10065C000C4A7B6852F823305A1E0A497B6841F8D1
:10066C002320084A7B6852F82330002B04DC064A0E
:10067C007B68012142F8231000BF0C37BD4680BCBB
:10068C00704700BF1C0200208C00002080B500AF1A
:10069C00984B1B68042B00F2EE8201A252F823F057
:1006AC00C10600083D070008850700084509000839
:1006BC00FD0A0008002000F009FD0346002B02D0C3
:1006CC008D4B01221A60002000F000FD0346002B28
:1006DC0040F0D382884B1B68002B00F0CE82854BF8
:1006EC0001221A6000216420FFF790FF0121642091
:1006FC00FFF78CFF814B02221A60814B00221A609B
:10070C00804B1B68804A1360804B1B68804A1360C7
:10071C00804B1B68804A13607B4B1B687F4A1360BD
:10072C007D4B1B687E4A1360734B00221A60A4E257
:10073C0000F0C8FA00F07AFB002000F0C7FC03467A
:10074C00002B02D06C4B01221A60002000F0BEFC82
:10075C000346002B40F09382674B1B68002B00F084
:10076C008E82644B02221A6003213220FFF74EFF67
:10077C00614B00221A6082E26A4BDB68012B0BD1C1
:10078C0003213220FFF742FF1021674801F05FFC84
:10079C008021654801F05BFC5A4B1B68012118460F
:1007AC00FFF75EFE02210220FFF75AFE012000F047
:1007BC008DFC0346002B02D05C4B01221A600120F9
:1007CC0000F084FC0346002B10D1584B1B68002B07
:1007DC000CD04C4B1B6801334A4A13604D4B1B68C1
:1007EC0001334C4A1360514B00221A60012000F077
:1007FC0087FC0346002B1CD04D4B1B68002B06D0EE
:10080C0004213220FFF702FF494B00221A60454BAE
:10081C001B69012B0DD104213220FFF7F7FE394B58
:10082C001B680133374A13603A4B1B680133394A52
:10083C001360022000F04AFC0346002B02D03D4B13
:10084C0001221A60022000F041FC0346002B27D144
:10085C00384B1B68002B23D0264B01221A60002139
:10086C006420FFF7D3FE01216420FFF7CFFE264B57
:10087C001B68244A1360264B1B68244A1360264BC2
:10088C001B68244A136001221021274801F0C7FB82
:10089C0001228021244801F0C2FB264B00221A6061
:1008AC00002000F013FC0346002B02D0124B012257
:1008BC001A60002000F00AFC0346002B40F0E18196
:1008CC000D4B1B68002B00F0DC810A4B03221A60D5
:1008DC0003213220FFF79AFE01221021124801F069
:1008EC009EFB01228021104801F099FB024B002253
:1008FC001A60C6E15400002048000020B803002014
:10090C00D403002000000020AC03002008000020CD
:10091C00B403002004000020B0030020D00300200A
:10092C00C00300208C000020000801404C00002077
:10093C000C00002050000020604BDB68012B0CD118
:10094C0003213220FFF762FE20215D4801F07FFB7E
:10095C004FF480715A4801F07AFB5A4B1B68012105
:10096C001846FFF77DFD02210320FFF779FD0120DA
:10097C0000F0ACFB0346002B02D0534B01221A6053
:10098C00012000F0A3FB0346002B10D14E4B1B683B
:10099C00002B0CD04B4B1B6801334A4A13604B4B5A
:1009AC001B680133494A1360474B00221A6001202F
:1009BC0000F0A6FB0346002B1CD0454B1B68002BFC
:1009CC0006D004213220FFF721FE414B00221A6091
:1009DC003A4B1B69012B0DD104213220FFF716FE77
:1009EC00384B1B680133374A1360384B1B68013393
:1009FC00364A1360022000F069FB0346002B02D03C
:100A0C00344B01221A60022000F060FB0346002BDD
:100A1C0028D1304B1B68002B24D02F4B01221A609D
:100A2C0000216420FFF7F2FD01216420FFF7EEFDA9
:100A3C002A4B1B682A4A13602A4B1B68214A1360F5
:100A4C00294B1B68214A1360012220211C4801F00C
:100A5C00E6FA01224FF48071194801F0E0FA1D4BBF
:100A6C0000221A60002000F031FB0346002B02D05C
:100A7C001E4B01221A60002000F028FB0346002BBD
:100A8C0040F00181194B1B68002B00F0FC80124BCD
:100A9C0004221A6003213220FFF7B8FD0122202125
:100AAC00074801F0BCFA01224FF48071044801F0B0
:100ABC00B6FA0E4B00221A60E5E000BF8C00002055
:100ACC0000080140080000204C0000200400002019
:100ADC000C0000205000002054000020AC0300202B
:100AEC0000000020B4030020B003002048000020C8
:100AFC00674BDB68012B0CD103213220FFF786FDFD
:100B0C004021644801F0A3FA4FF40071614801F0F0
:100B1C009EFA614B1B6801211846FFF7A1FC0221CC
:100B2C000420FFF79DFC012000F0D0FA0346002BB7
:100B3C0002D05A4B01221A60012000F0C7FA03467A
:100B4C00002B10D1554B1B68002B0CD0524B1B6843
:100B5C000133514A1360524B1B680133504A1360E6
:100B6C004E4B00221A60012000F0CAFA0346002BFB
:100B7C001CD04C4B1B68002B06D004213220FFF7F5
:100B8C0045FD484B00221A60414B1B69012B0DD1CE
:100B9C0004213220FFF73AFD3F4B1B6801333E4ADC
:100BAC0013603F4B1B6801333D4A1360022000F079
:100BBC008DFA0346002B02D03B4B01221A60022017
:100BCC0000F084FA0346002B28D1374B1B68002B0E
:100BDC0024D0364B01221A6000216420FFF716FD49
:100BEC0001216420FFF712FD314B1B682C4A136066
:100BFC00304B1B68304A1360304B1B68264A13601D
:100C0C0001224021234801F00AFA01224FF400711D
:100C1C00204801F004FA244B00221A60002000F056
:100C2C0055FA0346002B02D0254B01221A600020F6
:100C3C0000F04CFA0346002B27D1214B1B68002BEC
:100C4C0023D01A4B01221A6000216420FFF7DEFC2E
:100C5C0001216420FFF7DAFC012240210D4801F04C
:100C6C00DEF901224FF400710A4801F0D8F9144B57
:100C7C0000221A6009E000BF08E000BF06E000BFD8
:100C8C0004E000BF02E000BF00E000BF00BF80BD79
:100C9C008C00002000080140040000204C000020C3
:100CAC00000000200C000020500000205400002008
:100CBC00AC030020B403002008000020B003002087
:100CCC004800002080B500AF4F4B1B68022B07D0AB
:100CDC00022B00F38F80002B30D0012B5CD089E0ED
:100CEC0000221021494801F09AF90122202147489D
:100CFC0001F095F901224021444801F090F9444B50
:100D0C001B6801211846FFF7ABFB424B1B68012BFC
:100D1C0072D100216420FFF779FC3D4B1B68013B2D
:100D2C003B4A13603A4B1B68002B65DA364B0022AA
:100D3C001A60394B1B68394A13605DE0012210219F
:100D4C00324801F06CF901222021304801F067F99A
:100D5C00002240212D4801F062F9304B1B68012123
:100D6C001846FFF77DFB2B4B1B68012B46D100214E
:100D7C006420FFF74BFC294B1B68013B274A13608F
:100D8C00264B1B68002B39DA1F4B01221A60244BAF
:100D9C001B68244A136031E0012210211B4801F02A
:100DAC003EF900222021194801F039F90122402195
:100DBC00164801F034F91B4B1B6801211846FFF74C
:100DCC004FFB144B1B68012B1AD100216420FFF739
:100DDC001DFC144B1B68013B124A1360114B1B6822
:100DEC00002B0DDA084B02221A600F4B1B68084AC5
:100DFC00136005E000BF04E000BF02E000BF00E0AC
:100E0C0000BF00BF80BD00BFB80300200008014038
:100E1C00D00300208C00002004000020BC03002024
:100E2C0008000020CC0300200000002080B500AF9B
:100E3C00524B1B68022B07D0022B00F39580002B22
:100E4C0032D0012B60D08FE0002280214C4801F081
:100E5C00E6F801224FF48071494801F0E0F80122D4
:100E6C004FF40071464801F0DAF8464B1B6802213A
:100E7C001846FFF7F5FA444B5B68012B76D101213C
:100E8C006420FFF7C3FB3F4B1B68013B3D4A1360DB
:100E9C003C4B1B68002B69DA384B00221A603B4B29
:100EAC001B683B4A136061E001228021344801F049
:100EBC00B6F801224FF48071314801F0B0F80022ED
:100ECC004FF400712E4801F0AAF8314B1B68022137
:100EDC001846FFF7C5FA2C4B5B68012B48D1012152
:100EEC006420FFF793FB2A4B1B68013B284A1360D5
:100EFC00274B1B68002B3BDA204B01221A60254B39
:100F0C001B68254A136033E0012280211C4801F044
:100F1C0086F800224FF48071194801F080F8012204
:100F2C004FF40071164801F07AF81B4B1B68022134
:100F3C001846FFF795FA144B5B68012B1AD1012167
:100F4C006420FFF763FB144B1B68013B124A1360D0
:100F5C00114B1B68002B0DDA084B02221A600F4B49
:100F6C001B68084A136005E000BF04E000BF02E004
:100F7C0000BF00E000BF00BF80BD00BFD403002055
:100F8C0000080140C40300208C0000200400002055
:100F9C00C003002008000020C8030020000000202F
:100FAC0080B483B000AF0023FB710EE0FB790B4AD9
:100FBC000121D154FB790A4A0121D154FB79094A08
:100FCC000121D154FB790133FB71FB79022BEDD953
:100FDC0000BF00BF0C37BD4680BC70475C000020D2
:100FEC00600000205800002090B583B000AF03468D
:100FFC00FB71FA79FB792F49895C2F4AD154FB7923
:10100C00002B0AD1FC794FF480712C4800F0F0FFD2
:10101C0003461A46274B1A5517E0FB79012B0AD1C8
:10102C00FC794FF40071254800F0E2FF03461A46A4
:10103C00204B1A5509E0FC794FF480611F4800F0F1
:10104C00D7FF03461A461B4B1A55FB79194AD25C3B
:10105C00FB791949CB5C9A4228D1FA79FB7915496D
:10106C00895C174AD154FB79124AD35C002B14D1FA
:10107C00FB79144A32F81330632B09D8FB79114AE7
:10108C0032F81320013291B20E4A22F813100DE0FF
:10109C00FB790D4A0121D15408E0FB79094A002162
:1010AC0022F81310FB79084A0021D15400BF0C37E9
:1010BC00BD4690BD5C00002060000020000C01408B
:1010CC0058000020680000206400002080B483B029
:1010DC0000AF0346FB71FB79022B01D9002307E01B
:1010EC00FB79064AD35C002B0CBF01230023DBB237
:1010FC0018460C37BD4680BC704700BF5800002016
:10110C0080B483B000AF0346FB71FB79022B01D98D
:10111C00002307E0FB79064AD35C012B0CBF0123AB
:10112C000023DBB218460C37BD4680BC704700BFAD
:10113C006400002080B582B000AF0023FB7106E094
:10114C00FB791846FFF750FFFB790133FB71FB79F4
:10115C00022BF5D900BF00BF0837BD4680BD80B556
:10116C0000AFFFF793FA00BF80BD000080B500AF61
:10117C0000F0A2FB00F03EF800F014F900F076F855
:10118C0000F0E6F8164801F0D9FBFFF709FF022141
:10119C001920FFF73BFA0A220A21124800F08AF9BB
:1011AC0064220A21104800F085F9FFF76FFA0F4B03
:1011BC009B68012BF9D102211920FFF727FA0C4B60
:1011CC001B685A1C0A490A601846FFF789F9084B34
:1011DC001B68032BE9DD064B00221A60E5E700BF14
:1011EC00D8030020411100086B1100088C0000206E
:1011FC004400002080B590B000AF07F118032822FE
:10120C000021184602F07CFC3B1D00221A605A603B
:10121C009A60DA601A610223BB610123BB6210235E
:10122C00FB6200237B6307F11803184600F028FFCC
:10123C000346002B01D000F037F90F237B6000230D
:10124C00BB600023FB6000233B6100237B613B1DE3
:10125C000021184601F094F90346002B01D000F050
:10126C0023F900BF4037BD4680BD000080B588B073
:10127C0000AF07F10C0300221A605A609A60DA6022
:10128C003B1D00221A605A602C4B4FF080421A60B2
:10129C002A4B41F63F725A60284B00229A60274B2A
:1012AC000922DA60254B00221A61244B00229A6134
:1012BC00224801F0F3FA0346002B01D000F0F4F8B9
:1012CC004FF48053FB6007F10C0319461B4801F0E7
:1012DC0071FC0346002B01D000F0E6F800237B6084
:1012EC000023BB603B1D1946144801F049FE034620
:1012FC00002B01D000F0D8F8104B5B681A46104B4D
:10130C001A600E4BDB681A460E4B1A600C4B1B68AE
:10131C0001330C4A1268013202FB03F30A4A92FBB6
:10132C00F3F3FB614FF47A72FB6992FBF3F3074A18
:10133C00136000BF2037BD4680BD00BFD80300201E
:10134C00380000203C00002000127A0040000020F1
:10135C0080B500AF114B124A1A60104B4FF4165265
:10136C005A600E4B00229A600C4B0022DA600B4B39
:10137C0000221A61094B0C225A61084B00229A6117
:10138C00064B0022DA61054801F064FE0346002B8F
:10139C0001D000F089F800BF80BD00BF2004002000
:1013AC000044004080B586B000AF07F1080300226E
:1013BC001A605A609A60DA60284B9B69274A43F09E
:1013CC0004039361254B9B6903F004037B607B68EA
:1013DC00224B9B69214A43F0080393611F4B9B6985
:1013EC0003F008033B603B68002243F6F0711C4895
:1013FC0000F015FE00227F211A4800F010FE43F683
:10140C00F073BB600123FB6000233B6102237B6113
:10141C0007F108031946124800F070FC7F23BB60EB
:10142C000123FB6000233B6102237B6107F108036E
:10143C0019460C4800F062FC4FF4E063BB600023DB
:10144C00FB6001233B6107F108031946054800F0D6
:10145C0055FC00BF1837BD4680BD00BF00100240D0
:10146C0000080140000C014080B582B000AF7860EC
:10147C000020FFF7E3F80120FFF7E0F80220FFF768
:10148C00DDF80320FFF7DAF80420FFF7D7F8002087
:10149C00FFF7AAFD0120FFF7A7FD0220FFF7A4FD2F
:1014AC0000BF0837BD4680BD80B400AF72B600BF28
:1014BC00FEE70000B0B493B000AFF860B9607A609A
:1014CC00724B1B680A2B01D10023D9E0002387F84B
:1014DC00473000233B640023FB6328E03A6CBB6875
:1014EC009A420BD86A49FA6B13469B0013449B0033
:1014FC000B4404331B683A6C13443B643A6CBB6872
:10150C009A4211D96249FA6B13469B0013449B0013
:10151C000B4404331A683B6CD31ABA681344BB608F
:10152C00012387F8473007E0FB6B0133FB63574B14
:10153C001B68FA6B9A42D1D397F84730002B06D12F
:10154C00BA683B6CD31ABB60012387F8473050490B
:10155C00FA6B13469B0013449B000B4407F12404C5
:10156C001D460FCD0FC42B682360BA6ABB68D31A13
:10157C00BB62FB6BBB633DE0BB6B5A1C444913461F
:10158C009B0013449B000B4407F110041D460FCD28
:10159C000FC42B682360BB6B5A1C3D4913469B0040
:1015AC0013449B000B441D4607F124040FCC0FC5BC
:1015BC0023682B60BB6B5A1C354913469B001344A4
:1015CC009B000B4410331B68BA6B0132591C30481A
:1015DC0013469B0013449B0003441033196007F11E
:1015EC00240407F110050FCD0FC42B682360BB6BCF
:1015FC000133BB63254B1B68BA6B9A42BCD324499D
:10160C00FA6B13469B0013449B000B44FA681A6058
:10161C001F49FA6B13469B0013449B000B44043385
:10162C00BA681A601A49FA6B13469B0013449B0064
:10163C000B4408337A681A601549FA6B13469B0001
:10164C0013449B000B440C3300221A701049FA6BA4
:10165C0013469B0013449B000B441033FA6B1A6027
:10166C000A4B1B680133094A1360012387F8473082
:10167C00064B1B68013B074A0121D15497F84730B0
:10168C0018464C37BD46B0BC704700BF340500202F
:10169C006C0400207000002080B485B000AF154BA6
:1016AC009B69144A43F001039361124B9B6903F04D
:1016BC000103BB60BB680F4BDB690E4A43F08053E0
:1016CC00D3610C4BDB6903F080537B607B680A4B66
:1016DC005B68FB60FB6823F0E063FB60FB6843F036
:1016EC008063FB60044AFB68536000BF1437BD463F
:1016FC0080BC7047001002400000014080B584B0EF
:10170C0000AF78607B681B68B3F1804F13D10C4B32
:10171C00DB690B4A43F00103D361094BDB6903F02E
:10172C000103FB60FB68002200211C2000F0FDF986
:10173C001C2000F016FA00BF1037BD4680BD00BF5C
:10174C000010024080B588B000AF786007F110033C
:10175C0000221A605A609A60DA607B681B681F4A24
:10176C00934237D11E4BDB691D4A43F40033D361DE
:10177C001B4BDB6903F40033FB60FB68184B9B6964
:10178C00174A43F004039361154B9B6903F0040360
:10179C00BB60BB6804233B6102237B610323FB61B9
:1017AC0007F1100319460F4800F0A8FA08233B6113
:1017BC0000237B610023BB6107F110031946094824
:1017CC0000F09CFA00220021262000F0AEF9262021
:1017DC0000F0C7F900BF2037BD4680BD0044004073
:1017EC00001002400008014080B400AFFEE780B456
:1017FC0000AFFEE780B400AFFEE780B400AFFEE7B9
:10180C0080B400AFFEE780B400AF00BFBD4680BC23
:10181C00704780B400AF00BFBD4680BC704780B439
:10182C0000AF00BFBD4680BC704780B500AF00F074
:10183C0089F800BF80BD000080B500AF024801F000
:10184C00C9F800BF80BD00BFD803002080B500AF31
:10185C00024801F04FFC00BF80BD00BF20040020F7
:10186C0080B400AF00BFBD4680BC7047FFF7F8FFE7
:10187C000B480C490C4A002302E0D458C4500433E2
:10188C00C4188C42F9D3094A094C002301E01360B7
:10189C000432A242FBD302F00FF9FFF767FC70474A
:1018AC00000000201C000020683B00081C000020E9
:1018BC003C050020FEE7000080B500AF084B1B681C
:1018CC00074A43F010031360032000F023F90F20A4
:1018DC0000F008F8FFF7E0FE0023184680BD00BFBB
:1018EC000020024080B582B000AF7860124B1A68BD
:1018FC00124B1B7819464FF47A73B3FBF1F3B2FB1E
:10190C00F3F3184600F03BF90346002B01D00123FA
:10191C000EE07B680F2B0AD8002279684FF0FF305D
:10192C0000F003F9064A7B681360002300E00123F2
:10193C0018460837BD4680BD100000201800002056
:10194C001400002080B400AF054B1B781A46054BE1
:10195C001B681344034A136000BFBD4680BC70472C
:10196C00180000203805002080B400AF024B1B6823
:10197C001846BD4680BC70473805002080B485B041
:10198C0000AF78607B6803F00703FB600C4BDB68EF
:10199C00BB60BA684FF6FF031340BB60FB681A02CA
:1019AC00BB68134343F0BF6343F40033BB60044A8A
:1019BC00BB68D36000BF1437BD4680BC704700BF06
:1019CC0000ED00E080B400AF044BDB681B0A03F0B1
:1019DC0007031846BD4680BC704700BF00ED00E011
:1019EC0080B483B000AF0346FB7197F90730002B2E
:1019FC000BDBFB7903F01F02064997F907305B09F3
:101A0C00012000FA02F241F8232000BF0C37BD463A
:101A1C0080BC704700E100E080B483B000AF0346A7
:101A2C003960FB7197F90730002B0ADB3B68DAB29F
:101A3C000C4997F907301201D2B20B4483F80023FA
:101A4C000AE03B68DAB20849FB7903F00F03043B68
:101A5C001201D2B20B441A7600BF0C37BD4680BCC3
:101A6C00704700BF00E100E000ED00E080B489B0F9
:101A7C0000AFF860B9607A60FB6803F00703FB61A4
:101A8C00FB69C3F10703042B28BF0423BB61FB696B
:101A9C000433062B02D9FB69033B00E000237B6176
:101AAC004FF0FF32BB6902FA03F3DA43BB681A400A
:101ABC007B699A404FF0FF317B6901FA03F3D943FC
:101ACC007B680B40134318462437BD4680BC7047D7
:101ADC0080B582B000AF78607B68013BB3F1807F4A
:101AEC0001D301230FE00A4A7B68013B53600F21AD
:101AFC004FF0FF30FFF790FF054B00229A60044B2C
:101B0C0007221A60002318460837BD4680BD00BF67
:101B1C0010E000E080B582B000AF78607868FFF725
:101B2C002DFF00BF0837BD4680BD80B586B000AF25
:101B3C000346B9607A60FB7300237B61FFF742FFB9
:101B4C0078617A68B9687869FFF790FF024697F96F
:101B5C000F3011461846FFF75FFF00BF1837BD4620
:101B6C0080BD80B582B000AF0346FB7197F907309A
:101B7C001846FFF735FF00BF0837BD4680BD80B55E
:101B8C0082B000AF78607868FFF7A2FF0346184672
:101B9C000837BD4680BD80B485B000AF78600023A7
:101BAC00FB737B6893F82130DBB2022B08D07B6887
:101BBC0004229A637B68002283F82020012320E012
:101BCC007B681B681A687B681B6822F00E021A601F
:101BDC007B681B681A687B681B6822F001021A601C
:101BEC007B681A6C7B68DB6B012101FA02F25A608C
:101BFC007B68012283F821207B68002283F8202057
:101C0C00FB7B18461437BD4680BC704780B584B04A
:101C1C0000AF78600023FB737B6893F82130DBB254
:101C2C00022B05D07B6804229A630123FB7351E0DD
:101C3C007B681B681A687B681B6822F00E021A60AE
:101C4C007B681B681A687B681B6822F001021A60AB
:101C5C007B681B68224A934229D07B681B68214A07
:101C6C00934222D07B681B681F4A93421AD07B6830
:101C7C001B681E4A934212D07B681B681C4A934215
:101C8C000AD07B681B681B4A934202D14FF4801325
:101C9C000EE04FF080730BE04FF4803308E04FF40C
:101CAC00805305E04FF4807302E0102300E0012321
:101CBC00114A53607B68012283F821207B68002243
:101CCC0083F820207B685B6B002B03D07B685B6BFD
:101CDC0078689847FB7B18461037BD4680BD00BF1F
:101CEC00080002401C000240300002404400024048
:101CFC00580002406C0002400000024080B48BB0DF
:101D0C0000AF7860396000237B6200233B6248E1BE
:101D1C0001227B6A02FA03F3FB613B681B68FA69D8
:101D2C001340BB61BA69FB699A4240F037813B684A
:101D3C005B68A34A93425ED0A14A934275D8A14AEC
:101D4C00934258D09F4A93426FD89F4A934252D0A5
:101D5C009D4A934269D89D4A93424CD09B4A9342E8
:101D6C0063D89B4A934246D0994A93425DD8122B32
:101D7C002AD8122B59D801A252F823F0031E0008BE
:101D8C00DD1D0008EF1D0008311E0008371E00087D
:101D9C00371E0008371E0008371E0008371E0008C3
:101DAC00371E0008371E0008371E0008371E0008B3
:101DBC00371E0008371E0008371E0008371E0008A3
:101DCC00E51D0008F91D0008824A934213D02CE04F
:101DDC003B68DB683B6229E03B68DB6804333B62B1
:101DEC0024E03B68DB6808333B621FE03B68DB6840
:101DFC000C333B621AE03B689B68002B02D1042336
:101E0C003B6213E03B689B68012B05D108233B62C6
:101E1C007B68FA691A6109E008233B627B68FA69FE
:101E2C005A6103E000233B6200E000BFBB69FF2B5B
:101E3C0001D87B6801E07B6804337B61BB69FF2BB5
:101E4C0002D87B6A9B0002E07B6A083B9B003B61EB
:101E5C007B691A680F213B6901FA03F3DB431A40D3
:101E6C00396A3B6901FA03F31A437B691A603B68D0
:101E7C005B6803F08053002B00F09080564B9B69FD
:101E8C00554A43F001039361534B9B6903F00103E3
:101E9C00BB60BB68514A7B6A9B08023352F8233003
:101EAC00FB607B6A03F003039B000F2202FA03F32F
:101EBC00DB43FA681340FB607B68494A93420DD0C0
:101ECC007B68484A934207D07B68474A934201D1CA
:101EDC00022304E0032302E0012300E000237A6ADA
:101EEC0002F0030292009340FA681343FB603B49F3
:101EFC007B6A9B080233FA6841F823203B685B68D5
:101F0C0003F48013002B06D0384B9A683749BB6911
:101F1C0013438B6006E0354B9A68BB69DB4333494E
:101F2C0013408B603B685B6803F40013002B06D0F6
:101F3C002E4BDA682D49BB691343CB6006E02B4B63
:101F4C00DA68BB69DB4329491340CB603B685B68AB
:101F5C0003F40033002B06D0244B5A682349BB6989
:101F6C0013434B6006E0214B5A68BB69DB431F49A6
:101F7C0013404B603B685B6803F48033002B06D046
:101F8C001A4B1A681949BB6913430B6006E0174BCF
:101F9C001A68BB69DB43154913400B607B6A01333C
:101FAC007B623B681A687B6A22FA03F3002B7FF48E
:101FBC00AFAE00BF00BF2C37BD4680BC704700BF22
:101FCC00000032100000311000002210000021101F
:101FDC00000012100000111000100240000001401F
:101FEC0000080140000C01400010014000040140B9
:101FFC0080B485B000AF78600B467B807B689A68B4
:10200C007B881340002B02D00123FB7301E00023DB
:10201C00FB73FB7B18461437BD4680BC704780B4FD
:10202C0083B000AF78600B467B8013467B707B7867
:10203C00002B03D07A887B681A6103E07B881A0432
:10204C007B681A6100BF0C37BD4680BC704780B4FA
:10205C0085B000AF78600B467B807B68DB68FB60EB
:10206C007A88FB6813401A04FB68D9437B880B40C1
:10207C001A437B681A6100BF1437BD4680BC704799
:10208C0080B586B000AF78607B68002B01D101234E
:10209C006CE27B681B6803F00103002B00F0878067
:1020AC00924B5B6803F00C03042B0CD08F4B5B68DA
:1020BC0003F00C03082B12D18C4B5B6803F48033B8
:1020CC00B3F5803F0BD1894B1B6803F40033002B15
:1020DC006CD07B685B68002B68D1012346E27B687F
:1020EC005B68B3F5803F06D1804B1B687F4A43F495
:1020FC00803313602EE07B685B68002B0CD17B4B2C
:10210C001B687A4A23F480331360784B1B68774A38
:10211C0023F4802313601DE07B685B68B3F5A02F6C
:10212C000CD1724B1B68714A43F4802313606F4BC4
:10213C001B686E4A43F4803313600BE06B4B1B68D7
:10214C006A4A23F480331360684B1B68674A23F494
:10215C00802313607B685B68002B13D0FFF704FCB3
:10216C00386108E0FFF700FC02463B69D31A642B88
:10217C0001D90323FAE15D4B1B6803F40033002BF8
:10218C00F0D014E0FFF7F0FB386108E0FFF7ECFB50
:10219C0002463B69D31A642B01D90323E6E1534B66
:1021AC001B6803F40033002BF0D100E000BF7B6808
:1021BC001B6803F00203002B63D04C4B5B6803F0ED
:1021CC000C03002B0BD0494B5B6803F00C03082B62
:1021DC001CD1464B5B6803F48033002B16D1434B68
:1021EC001B6803F00203002B05D07B681B69012BD5
:1021FC0001D00123BAE13D4B1B6823F0F8027B6848
:10220C005B69DB00394913430B603AE07B681B695F
:10221C00002B20D0364B01221A60FFF7A5FB38614A
:10222C0008E0FFF7A1FB02463B69D31A022B01D948
:10223C0003239BE12D4B1B6803F00203002BF0D012
:10224C002A4B1B6823F0F8027B685B69DB0027498B
:10225C0013430B6015E0264B00221A60FFF784FB3A
:10226C00386108E0FFF780FB02463B69D31A022B6A
:10227C0001D903237AE11D4B1B6803F00203002BE9
:10228C00F0D17B681B6803F00803002B3AD07B6805
:10229C009B69002B19D0174B01221A60FFF764FBC6
:1022AC00386108E0FFF760FB02463B69D31A022B4A
:1022BC0001D903235AE10D4B5B6A03F00203002B97
:1022CC00F0D0012000F0CCFA1CE00A4B00221A607E
:1022DC00FFF74AFB38610FE0FFF746FB02463B690C
:1022EC00D31A022B08D9032340E100BF001002408F
:1022FC0000004242800442429E4B5B6A03F00203A0
:10230C00002BE9D17B681B6803F00403002B00F061
:10231C00A6800023FB75974BDB6903F08053002BE1
:10232C000DD1944BDB69934A43F08053D361914BAD
:10233C00DB6903F08053BB60BB680123FB758E4BDC
:10234C001B6803F48073002B18D18B4B1B688A4AD3
:10235C0043F480731360FFF707FB386108E0FFF765
:10236C0003FB02463B69D31A642B01D90323FDE01E
:10237C00814B1B6803F48073002BF0D07B68DB6807
:10238C00012B06D17B4B1B6A7A4A43F00103136283
:10239C002DE07B68DB68002B0CD1764B1B6A754AF1
:1023AC0023F001031362734B1B6A724A23F004037C
:1023BC0013621CE07B68DB68052B0CD16D4B1B6A30
:1023CC006C4A43F0040313626A4B1B6A694A43F07C
:1023DC00010313620BE0674B1B6A664A23F001038F
:1023EC001362644B1B6A634A23F0040313627B6819
:1023FC00DB68002B15D0FFF7B7FA38610AE0FFF75E
:10240C00B3FA02463B69D31A41F28832934201D99E
:10241C000323ABE0574B1B6A03F00203002BEED0F7
:10242C0014E0FFF7A1FA38610AE0FFF79DFA0246C3
:10243C003B69D31A41F28832934201D9032395E0C8
:10244C004C4B1B6A03F00203002BEED1FB7D012BDE
:10245C0005D1484BDB69474A23F08053D3617B6835
:10246C00DB69002B00F08180424B5B6803F00C03AE
:10247C00082B61D07B68DB69022B46D13F4B0022D5
:10248C001A60FFF771FA386108E0FFF76DFA02463F
:10249C003B69D31A022B01D9032367E0354B1B6828
:1024AC0003F00073002BF0D17B681B6AB3F5803FFF
:1024BC0008D1304B5B6823F400327B689B682D4954
:1024CC0013434B602B4B5B6823F474127B68196AC3
:1024DC007B685B6A0B43274913434B60274B0122F4
:1024EC001A60FFF741FA386108E0FFF73DFA02463F
:1024FC003B69D31A022B01D9032337E01D4B1B6810
:10250C0003F00073002BF0D02FE01C4B00221A605C
:10251C00FFF72AFA386108E0FFF726FA02463B6912
:10252C00D31A022B01D9032320E0124B1B6803F0B2
:10253C000073002BF0D118E07B68DB69012B01D113
:10254C00012313E00B4B5B68FB60FB6803F48032E8
:10255C007B681B6A9A4206D1FB6803F470127B6895
:10256C005B6A9A4201D0012300E000231846183719
:10257C00BD4680BD00100240007000406000424229
:10258C0080B584B000AF786039607B68002B01D1D6
:10259C000123D0E06A4B1B6803F007033A689A42A8
:1025AC0010D9674B1B6823F0070265493B6813433E
:1025BC000B60634B1B6803F007033A689A4201D027
:1025CC000123B8E07B681B6803F00203002B20D0CA
:1025DC007B681B6803F00403002B05D0594B5B6828
:1025EC00584A43F4E06353607B681B6803F00803AC
:1025FC00002B05D0534B5B68524A43F46053536035
:10260C00504B5B6823F0F0027B689B684D49134389
:10261C004B607B681B6803F00103002B40D07B6888
:10262C005B68012B07D1474B1B6803F40033002B6D
:10263C0015D101237FE07B685B68022B07D1414BEE
:10264C001B6803F00073002B09D1012373E03D4B91
:10265C001B6803F00203002B01D101236BE0394B03
:10266C005B6823F003027B685B68364913434B605D
:10267C00FFF77AF9F8600AE0FFF776F90246FB6893
:10268C00D31A41F28832934201D9032353E02D4BE4
:10269C005B6803F00C027B685B689B009A42EBD191
:1026AC00274B1B6803F007033A689A4210D2244B5D
:1026BC001B6823F0070222493B6813430B60204B35
:1026CC001B6803F007033A689A4201D0012332E0F9
:1026DC007B681B6803F00403002B08D0194B5B6864
:1026EC0023F4E0627B68DB68164913434B607B681C
:1026FC001B6803F00803002B09D0124B5B6823F412
:10270C0060527B681B69DB000E4913434B6000F081
:10271C0021F802460B4B5B681B0903F00F030A49B7
:10272C00CB5C22FA03F3094A1360094B1B68184669
:10273C00FFF7D8F8002318461037BD4680BD00BF00
:10274C000020024000100240343B00081000002022
:10275C001400002080B487B000AF0023FB6000237E
:10276C00BB6000237B6100237B6000233B611E4B1D
:10277C005B68FB60FB6803F00C03042B02D0082B96
:10278C0003D027E0194B3B6127E0FB689B0C03F05F
:10279C000F03174AD35C7B60FB6803F48033002B78
:1027AC0010D0114B5B685B0C03F00103114AD35C36
:1027BC00BB607B680D4A02FB03F2BB68B2FBF3F310
:1027CC007B6104E07B680C4A02FB03F37B617B6951
:1027DC003B6102E0054B3B6100BF3B6918461C376F
:1027EC00BD4680BC704700BF0010024000127A004A
:1027FC004C3B00085C3B000800093D0080B400AF76
:10280C00024B1B681846BD4680BC70471000002068
:10281C0080B500AFFFF7F2FF0246054B5B681B0A61
:10282C0003F007030349CB5C22FA03F3184680BD7F
:10283C0000100240443B000880B500AFFFF7DEFFFC
:10284C000246054B5B68DB0A03F007030349CB5CCC
:10285C0022FA03F3184680BD00100240443B0008E6
:10286C0080B485B000AF78600A4B1B680A4AA2FBA3
:10287C0003235B0A7A6802FB03F3FB6000BFFB686F
:10288C005A1EFA60002BF9D100BF00BF1437BD46A9
:10289C0080BC704710000020D34D621080B582B010
:1028AC0000AF78607B68002B01D1012341E07B688D
:1028BC0093F83D30DBB2002B06D17B68002283F805
:1028CC003C207868FEF71AFF7B68022283F83D20D3
:1028DC007B681A687B6804331946104600F056FA78
:1028EC007B68012283F846207B68012283F83E2016
:1028FC007B68012283F83F207B68012283F840200B
:10290C007B68012283F841207B68012283F84220F6
:10291C007B68012283F843207B68012283F84420E2
:10292C007B68012283F845207B68012283F83D20D7
:10293C00002318460837BD4680BD000080B485B022
:10294C0000AF78607B6893F83D30DBB2012B01D08F
:10295C00012335E07B68022283F83D207B681B68ED
:10296C00DA687B681B6842F00102DA607B681B68DE
:10297C00164A934209D07B681B68B3F1804F04D090
:10298C007B681B68124A934211D17B681B689B6859
:10299C0003F00703FB60FB68062B10D07B681B68F9
:1029AC001A687B681B6842F001021A6007E07B68BA
:1029BC001B681A687B681B6842F001021A600023CE
:1029CC0018461437BD4680BC704700BF002C014030
:1029DC000004004080B584B000AF78607B681B6851
:1029EC00DB68FB607B681B681B69BB60BB6803F022
:1029FC000203002B20D0FB6803F00203002B1BD03A
:102A0C007B681B686FF002021A617B6801221A77DF
:102A1C007B681B689B6903F00303002B03D0786869
:102A2C0000F098F905E0786800F08BF9786800F010
:102A3C009AF97B6800221A77BB6803F00403002B19
:102A4C0020D0FB6803F00403002B1BD07B681B68B1
:102A5C006FF004021A617B6802221A777B681B688C
:102A6C009B6903F44073002B03D0786800F072F973
:102A7C0005E0786800F065F9786800F074F97B6817
:102A8C0000221A77BB6803F00803002B20D0FB68E8
:102A9C0003F00803002B1BD07B681B686FF0080247
:102AAC001A617B6804221A777B681B68DB6903F068
:102ABC000303002B03D0786800F04CF905E078682C
:102ACC0000F03FF9786800F04EF97B6800221A7725
:102ADC00BB6803F01003002B20D0FB6803F010033D
:102AEC00002B1BD07B681B686FF010021A617B688F
:102AFC0008221A777B681B68DB6903F44073002B90
:102B0C0003D0786800F026F905E0786800F019F930
:102B1C00786800F028F97B6800221A77BB6803F00C
:102B2C000103002B0CD0FB6803F00103002B07D032
:102B3C007B681B686FF001021A617868FEF794FCE1
:102B4C00BB6803F08003002B0CD0FB6803F0800300
:102B5C00002B07D07B681B686FF080021A617868C5
:102B6C0000F06FFABB6803F04003002B0CD0FB683D
:102B7C0003F04003002B07D07B681B686FF040020A
:102B8C001A61786800F0F8F8BB6803F02003002B9A
:102B9C000CD0FB6803F02003002B07D07B681B686C
:102BAC006FF020021A61786800F042FA00BF10370B
:102BBC00BD4680BD80B584B000AF7860396000231D
:102BCC00FB737B6893F83C30012B01D10223B4E0FA
:102BDC007B68012283F83C207B68022283F83D202D
:102BEC007B681B689B68BB60BB6823F07703BB608A
:102BFC00BB6823F47F43BB607B681B68BA689A6030
:102C0C003B681B68B3F5005F3ED0B3F5005F00F284
:102C1C008780B3F5805F00F08680B3F5805F7FD846
:102C2C00702B1AD0702B7BD8602B50D0602B77D8A0
:102C3C00502B3CD0502B73D8402B58D0402B6FD8F6
:102C4C00302B64D0302B6BD8202B60D0202B67D846
:102C5C00002B5CD0102B5AD062E07B6818683B6864
:102C6C0099683B685A683B68DB6800F06AF97B68D6
:102C7C001B689B68BB60BB6843F07703BB607B68D9
:102C8C001B68BA689A604FE07B6818683B68996863
:102C9C003B685A683B68DB6800F053F97B681B683B
:102CAC009A687B681B6842F480429A603CE07B68BF
:102CBC0018683B6859683B68DB681A4600F0CAF82C
:102CCC007B681B685021184600F021F92CE07B68CA
:102CDC0018683B6859683B68DB681A4600F0E8F8EE
:102CEC007B681B686021184600F011F91CE07B68BA
:102CFC0018683B6859683B68DB681A4600F0AAF80C
:102D0C007B681B684021184600F001F90CE07B68D9
:102D1C001A683B681B681946104600F0F8F803E087
:102D2C000123FB7300E000BF7B68012283F83D2088
:102D3C007B68002283F83C20FB7B18461037BD468D
:102D4C0080BD80B483B000AF786000BF0C37BD4647
:102D5C0080BC704780B483B000AF786000BF0C3784
:102D6C00BD4680BC704780B483B000AF786000BFB4
:102D7C000C37BD4680BC704780B483B000AF786020
:102D8C0000BF0C37BD4680BC7047000080B485B0D6
:102D9C0000AF786039607B681B68FB607B682B4AEE
:102DAC00934207D07B68B3F1804F03D07B68284AED
:102DBC00934208D1FB6823F07003FB603B685B68AF
:102DCC00FA681343FB607B68204A934207D07B6808
:102DDC00B3F1804F03D07B681D4A934208D1FB6846
:102DEC0023F44073FB603B68DB68FA681343FB60B9
:102DFC00FB6823F080023B685B691343FB607B68D4
:102E0C00FA681A603B689A687B68DA623B681A68F1
:102E1C007B689A627B680D4A934203D13B681A69BE
:102E2C007B681A637B6801225A617B681B6903F01B
:102E3C000103002B05D07B681B6923F001027B6822
:102E4C001A6100BF1437BD4680BC7047002C01408E
:102E5C000004004080B487B000AFF860B9607A60BD
:102E6C00FB681B6A7B61FB681B6A23F00102FB6831
:102E7C001A62FB689B693B613B6923F0F0033B6181
:102E8C007B681B013A6913433B617B6923F00A039E
:102E9C007B617A69BB6813437B61FB683A699A6111
:102EAC00FB687A691A6200BF1C37BD4680BC70474C
:102EBC0080B487B000AFF860B9607A60FB681B6AB9
:102ECC007B61FB681B6A23F01002FB681A62FB68CB
:102EDC009B693B613B6923F470433B617B681B033B
:102EEC003A6913433B617B6923F0A0037B61BB68A8
:102EFC001B017A6913437B61FB683A699A61FB6831
:102F0C007A691A6200BF1C37BD4680BC704780B41A
:102F1C0085B000AF786039607B689B68FB60FB68AC
:102F2C0023F07003FB603A68FB68134343F007031C
:102F3C00FB607B68FA689A6000BF1437BD4680BCA2
:102F4C00704780B487B000AFF860B9607A603B60BE
:102F5C00FB689B687B617B6923F47F437B613B68E7
:102F6C001A027B681A43BB6813437A6913437B616B
:102F7C00FB687A699A6000BF1C37BD4680BC7047FD
:102F8C0080B485B000AF786039607B6893F83C30D2
:102F9C00012B01D1022341E07B68012283F83C2004
:102FAC007B68022283F83D207B681B685B68FB60B2
:102FBC007B681B689B68BB60FB6823F07003FB603D
:102FCC003B681B68FA681343FB607B681B68FA68F4
:102FDC005A607B681B68144A934209D07B681B6853
:102FEC00B3F1804F04D07B681B68104A93420CD11C
:102FFC00BB6823F08003BB603B685B68BA68134313
:10300C00BB607B681B68BA689A607B68012283F896
:10301C003D207B68002283F83C200023184614379F
:10302C00BD4680BC704700BF002C0140000400402E
:10303C0080B483B000AF786000BF0C37BD4680BC55
:10304C00704780B483B000AF786000BF0C37BD46CA
:10305C0080BC704780B582B000AF78607B68002B75
:10306C0001D1012342E07B6893F84130DBB2002BA5
:10307C0006D17B68002283F840207868FEF762FB5B
:10308C007B68242283F841207B681B68DA687B68A4
:10309C001B6822F40052DA60786800F07FFC7B68D1
:1030AC001B681A697B681B6822F490421A617B6862
:1030BC001B685A697B681B6822F02A025A617B687C
:1030CC001B68DA687B681B6842F40052DA607B6824
:1030DC0000225A647B68202283F841207B682022DE
:1030EC0083F842207B6800225A6300231846083775
:1030FC00BD4680BD80B5BAB000AF78607B681B68F8
:10310C001B68C7F8E4307B681B68DB68C7F8E030E5
:10311C007B681B685B69C7F8DC300023C7F8D830C4
:10312C000023C7F8D430D7F8E43003F00F03C7F806
:10313C00D830D7F8D830002B0FD1D7F8E43003F0C3
:10314C002003002B09D0D7F8E03003F02003002B2C
:10315C0003D0786800F063FB5BE2D7F8D830002B23
:10316C0000F0DE80D7F8DC3003F00103002B06D131
:10317C00D7F8E03003F49073002B00F0D180D7F82F
:10318C00E43003F00103002B0BD0D7F8E03003F44C
:10319C008073002B05D07B685B6C43F001027B686D
:1031AC005A64D7F8E43003F00403002B0BD0D7F8A3
:1031BC00DC3003F00103002B05D07B685B6C43F023
:1031CC0002027B685A64D7F8E43003F00203002B48
:1031DC000BD0D7F8DC3003F00103002B05D07B6853
:1031EC005B6C43F004027B685A64D7F8E43003F05C
:1031FC000803002B11D0D7F8E03003F02003002B8C
:10320C0005D1D7F8DC3003F00103002B05D07B6827
:10321C005B6C43F008027B685A647B685B6C002B28
:10322C0000F0F281D7F8E43003F02003002B08D033
:10323C00D7F8E03003F02003002B02D0786800F0C0
:10324C00EEFA7B681B685B6903F04003002B14BF2C
:10325C0001230023DBB2C7F8D4307B685B6C03F02E
:10326C000803002B03D1D7F8D430002B4FD078684B
:10327C0000F0F8F97B681B685B6903F04003002BD6
:10328C0041D07B681B681433C7F89C30D7F89C304E
:10329C0053E8003FC7F89830D7F8983023F0400334
:1032AC00C7F8D0307B681B681433D7F8D020C7F828
:1032BC00A820C7F8A430D7F8A410D7F8A82041E864
:1032CC000023C7F8A030D7F8A030002BD9D17B68E9
:1032DC00DB6B002B13D07B68DB6B7E4A5A637B68FD
:1032EC00DB6B1846FEF792FC0346002B16D07B686E
:1032FC00DB6B5B6B7A68D26B104698470EE0786894
:10330C0000F09CF90AE0786800F098F906E078681B
:10331C0000F094F97B6800225A6475E100BF73E1F8
:10332C007B681B6B012B40F04F81D7F8E43003F026
:10333C001003002B00F04881D7F8E03003F01003A5
:10334C00002B00F041810023BB607B681B681B686D
:10335C00BB607B681B685B68BB60BB687B681B6879
:10336C005B6903F04003002B00F0B6807B68DB6BDD
:10337C001B685B68A7F8BE30B7F8BE30002B00F0B6
:10338C0045817B689B8DB7F8BE209A4280F03E81C8
:10339C007B68B7F8BE20DA857B68DB6B9B69202BDA
:1033AC0000F088807B681B680C33C7F88830D7F82E
:1033BC00883053E8003FC7F88430D7F8843023F4C2
:1033CC008073C7F8B8307B681B680C33D7F8B8200B
:1033DC00C7F89420C7F89030D7F89010D7F89420FD
:1033EC0041E80023C7F88C30D7F88C30002BD9D1AA
:1033FC007B681B6814337B677B6F53E8003F3B672C
:10340C003B6F23F00103C7F8B4307B681B6814339F
:10341C00D7F8B420C7F88020FB67F96FD7F8802065
:10342C0041E80023BB67BB6F002BE1D17B681B68B5
:10343C0014333B663B6E53E8003FFB65FB6D23F09A
:10344C004003C7F8B0307B681B681433D7F8B02042
:10345C00FA66BB66B96EFA6E41E800237B667B6E3A
:10346C00002BE3D17B68202283F842207B6800226A
:10347C001A637B681B680C33FB64FB6C53E8003FDE
:10348C00BB64BB6C23F01003C7F8AC307B681B68C3
:10349C000C33D7F8AC20BA657B65796DBA6D41E811
:1034AC0000233B653B6D002BE3D17B68DB6B18463F
:1034BC00FEF771FB7B6802225A637B689A8D7B68EE
:1034CC00DB8D9BB2D31A9BB21946786800F0BFF81B
:1034DC009CE000BF353700087B689A8D7B68DB8DDC
:1034EC009BB2D31AA7F8CE307B68DB8D9BB2002B36
:1034FC0000F08E80B7F8CE30002B00F089807B680E
:10350C001B680C33BB63BB6B53E8003F7B637B6B6B
:10351C0023F49073C7F8C8307B681B680C33D7F85A
:10352C00C8207A643B64396C7A6C41E80023FB63F5
:10353C00FB6B002BE3D17B681B6814337B627B6ACB
:10354C0053E8003F3B623B6A23F00103C7F8C430E9
:10355C007B681B681433D7F8C4203A63FB62F96AA2
:10356C003A6B41E80023BB62BB6A002BE3D17B685A
:10357C00202283F842207B6800221A637B681B6838
:10358C000C333B613B6953E8003FFB60FB6823F065
:10359C001003C7F8C0307B681B680C33D7F8C02009
:1035AC00FA61BB61B969FA6941E800237B617B6907
:1035BC00002BE3D17B6802225A63B7F8CE30194650
:1035CC00786800F044F823E0D7F8E43003F0800387
:1035DC00002B09D0D7F8E03003F08003002B03D088
:1035EC00786800F0B5F814E0D7F8E43003F0400345
:1035FC00002B0ED0D7F8E03003F04003002B08D09E
:10360C00786800F0F4F804E000BF02E000BF00E0CE
:10361C0000BFE837BD4680BD80B483B000AF786092
:10362C0000BF0C37BD4680BC704780B483B000AF80
:10363C00786000BF0C37BD4680BC704780B483B047
:10364C0000AF786000BF0C37BD4680BC704780B4BB
:10365C0083B000AF78600B467B8000BF0C37BD4653
:10366C0080BC704780B495B000AF78607B681B68F5
:10367C000C337B637B6B53E8003F3B633B6B23F466
:10368C009073FB647B681B680C33FA6C3A64FB63C5
:10369C00F96B3A6C41E80023BB63BB6B002BE5D1A3
:1036AC007B681B6814333B623B6A53E8003FFB6149
:1036BC00FB6923F00103BB647B681B681433BA6C91
:1036CC00FA62BB62B96AFA6A41E800237B627B6AE0
:1036DC00002BE5D17B681B6B012B19D17B681B6818
:1036EC000C33FB60FB6853E8003FBB60BB6823F006
:1036FC0010037B647B681B680C337A6CBA617B614A
:10370C007969BA6941E800233B613B69002BE5D13B
:10371C007B68202283F842207B6800221A6300BF5A
:10372C005437BD4680BC704780B584B000AF78601C
:10373C007B685B6AFB60FB680022DA85FB68002211
:10374C00DA84F868FFF77AFF00BF1037BD4680BDFA
:10375C0080B485B000AF78607B6893F84130DBB201
:10376C00212B3ED17B689B68B3F5805F14D17B68BD
:10377C001B69002B10D17B681B6AFB60FB681B88E4
:10378C001A467B681B68C2F308025A607B681B6A86
:10379C009A1C7B681A6208E07B681B6A591C7A6861
:1037AC0011621A787B681B685A607B68DB8C9BB251
:1037BC00013B9BB27A681946D184002B0FD17B68F0
:1037CC001B68DA687B681B6822F08002DA607B6811
:1037DC001B68DA687B681B6842F04002DA600023E1
:1037EC0000E0022318461437BD4680BC704780B5F4
:1037FC0082B000AF78607B681B68DA687B681B68F6
:10380C0022F04002DA607B68202283F8412078683D
:10381C00FFF702FF002318460837BD4680BD80B570
:10382C008CB000AF78607B6893F84230DBB2222B0F
:10383C0040F0AE807B689B68B3F5805F17D17B68E6
:10384C001B69002B13D10023FB627B689B6ABB6254
:10385C007B681B685B689BB2C3F308039AB2BB6AB4
:10386C001A807B689B6A9A1C7B689A6226E07B684C
:10387C009B6AFB620023BB627B689B68B3F5805F2D
:10388C0007D07B689B68002B0AD17B681B69002BD7
:10389C0006D17B681B685B68DAB2FB6A1A7008E0B9
:1038AC007B681B685B68DBB203F07F03DAB2FB6AF0
:1038BC001A707B689B6A5A1C7B689A627B68DB8DEA
:1038CC009BB2013B9BB27A681946D185002B5DD126
:1038DC007B681B68DA687B681B6822F02002DA6060
:1038EC007B681B68DA687B681B6822F48072DA607C
:1038FC007B681B685A697B681B6822F001025A615D
:10390C007B68202283F842207B6800225A637B6804
:10391C001B6B012B35D17B6800221A637B681B68FB
:10392C000C337B617B6953E8003F3B613B6923F0BF
:10393C0010037B627B681B680C337A6A3A62FB610A
:10394C00F9693A6A41E80023BB61BB69002BE5D1F8
:10395C007B681B681B6803F01003102B0AD1002333
:10396C00FB607B681B681B68FB607B681B685B6883
:10397C00FB60FB687B689B8D19467868FFF767FED8
:10398C0002E07868FFF751FE002302E0002300E01C
:10399C00022318463037BD4680BD000080B584B088
:1039AC0000AF78607B681B681B6923F440517B680F
:1039BC00DA687B681B680A431A617B689A687B68C3
:1039CC001B691A437B685B691343BB607B681B688C
:1039DC00DB6823F4B05323F00C037A681268B968DF
:1039EC000B43D3607B681B685B6923F440717B6875
:1039FC009A697B681B680A435A617B681B682C4A6E
:103A0C00934203D1FEF718FFF86002E0FEF700FFC7
:103A1C00F860FA6813469B0013449A001A447B68BA
:103A2C005B689B00B2FBF3F3224AA2FB03235B0906
:103A3C001901FA6813469B0013449A001A447B68D8
:103A4C005B689B00B2FBF3F21A4BA3FB02035B090E
:103A5C00642000FB03F3D31A1B013233154AA2FB7B
:103A6C0003235B0903F0F0031944FA6813469B0027
:103A7C0013449A001A447B685B689B00B2FBF3F218
:103A8C000C4BA3FB02035B09642000FB03F3D31A6A
:103A9C001B013233074AA2FB03235B0903F00F021D
:103AAC007B681B680A449A6000BF1037BD4680BD16
:103ABC00003801401F85EB5170B500260C4D0D4CA4
:103ACC00641BA410A64209D100F022F800260A4D6E
:103ADC000A4C641BA410A64205D170BD55F8043BDA
:103AEC0098470136EEE755F8043B98470136F2E764
:103AFC00603B0008603B0008603B0008643B00082A
:103B0C0003460244934200D1704703F8011BF9E7C6
:103B1C00F8B500BFF8BC08BC9E467047F8B500BFAE
:083B2C00F8BC08BC9E4670477E
:103B34000000000000000000010203040607080959
:103B4400000000000102030402030405060708093B
:0C3B54000A0B0C0D0E0F101001020000F7
:043B60003101000827
:043B64000D01000847
:103B68000400000002000000010000000100000045
:0C3B780000127A001000000001000000A4
:04000005080018795E
:00000001FF
